:020000040000fa
:080000000002040000000000f2
:020000040000fa
:04000800c40300002d
:020000040000fa
:04000c00d00200001e
:020000040000fa
:0400100012030000d7
:020000040000fa
:04001400f0020000f6
:020000040000fa
:0400180032030000af
:020000040000fa
:04001c00c403000019
:020000040000fa
:04002000c403000015
:020000040000fa
:04002400c403000011
:020000040000fa
:04002800520300007f
:020000040000fa
:04002c00c403000009
:020000040000fa
:04003000c403000005
:020000040000fa
:040034008e03000037
:020000040000fa
:04003800c4030000fd
:020000040000fa
:04003c00c4030000f9
:020000040000fa
:04004000c4030000f5
:020000040000fa
:04004400c4030000f1
:020000040000fa
:04004800c4030000ed
:020000040000fa
:04004c00c4030000e9
:020000040000fa
:04005000c4030000e5
:020000040000fa
:04005400c4030000e1
:020000040000fa
:04005800c4030000dd
:020000040000fa
:04005c00c4030000d9
:020000040000fa
:04006000c4030000d5
:020000040000fa
:04006400c4030000d1
:020000040000fa
:04006800c4030000cd
:020000040000fa
:04006c00c4030000c9
:020000040000fa
:04007000c4030000c5
:020000040000fa
:04007400c4030000c1
:020000040000fa
:040078007003000011
:020000040000fa
:04007c00c4030000b9
:020000040000fa
:04008000c4030000b5
:020000040000fa
:04008400c4030000b1
:020000040000fa
:04008800c4030000ad
:020000040000fa
:04008c00c4030000a9
:020000040000fa
:04009000c4030000a5
:020000040000fa
:04009400c4030000a1
:020000040000fa
:04009800c40300009d
:020000040000fa
:04009c00c403000099
:020000040000fa
:0400a000c403000095
:020000040000fa
:0400a400c403000091
:020000040000fa
:0400a800c40300008d
:020000040000fa
:0400ac00c403000089
:020000040000fa
:0400b000c403000085
:020000040000fa
:0400b400c403000081
:020000040000fa
:0400b800c40300007d
:020000040000fa
:0400bc00c403000079
:020000040000fa
:0400c000c403000075
:020000040000fa
:0400c400c403000071
:020000040000fa
:0400c800c40300006d
:020000040000fa
:0400cc00c403000069
:020000040000fa
:0400d000c403000065
:020000040000fa
:0400d400c403000061
:020000040000fa
:0400d800c40300005d
:020000040000fa
:0400dc00c403000059
:020000040000fa
:0400e000c403000055
:020000040000fa
:0400e400c403000051
:020000040000fa
:0400e800c40300004d
:020000040000fa
:0400ec00c403000049
:020000040000fa
:0400f000c403000045
:020000040000fa
:0400f400c403000041
:020000040000fa
:0400f800c40300003d
:020000040000fa
:0400fc00c403000039
:020000040000fa
:04010000c403000034
:020000040000fa
:04010400c403000030
:020000040000fa
:04010800c40300002c
:020000040000fa
:04010c00c403000028
:020000040000fa
:04011000c403000024
:020000040000fa
:04011400c403000020
:020000040000fa
:04011800c40300001c
:020000040000fa
:04011c00c403000018
:020000040000fa
:04012000c403000014
:020000040000fa
:04012400c403000010
:020000040000fa
:04012800c40300000c
:020000040000fa
:04012c00c403000008
:020000040000fa
:04013000c403000004
:020000040000fa
:04013400c403000000
:020000040000fa
:04013800c4030000fc
:020000040000fa
:04013c00c4030000f8
:020000040000fa
:04014000c4030000f4
:020000040000fa
:04014400c4030000f0
:020000040000fa
:04014800c4030000ec
:020000040000fa
:04020800c40300002b
:020000040000fa
:04020c00d00200001c
:020000040000fa
:0402100012030000d5
:020000040000fa
:04021400f0020000f4
:020000040000fa
:0402180032030000ad
:020000040000fa
:04021c00c403000017
:020000040000fa
:04022000c403000013
:020000040000fa
:04022400c40300000f
:020000040000fa
:04022800520300007d
:020000040000fa
:04022c00c403000007
:020000040000fa
:04023000c403000003
:020000040000fa
:040234008e03000035
:020000040000fa
:04023800c4030000fb
:020000040000fa
:04023c00c4030000f7
:020000040000fa
:04024000c4030000f3
:020000040000fa
:04024400c4030000ef
:020000040000fa
:04024800c4030000eb
:020000040000fa
:04024c00c4030000e7
:020000040000fa
:04025000c4030000e3
:020000040000fa
:04025400c4030000df
:020000040000fa
:04025800c4030000db
:020000040000fa
:04025c00c4030000d7
:020000040000fa
:04026000c4030000d3
:020000040000fa
:04026400c4030000cf
:020000040000fa
:04026800c4030000cb
:020000040000fa
:04026c00c4030000c7
:020000040000fa
:04027000c4030000c3
:020000040000fa
:04027400c4030000bf
:020000040000fa
:04027800700300000f
:020000040000fa
:04027c00c4030000b7
:020000040000fa
:04028000c4030000b3
:020000040000fa
:04028400c4030000af
:020000040000fa
:04028800c4030000ab
:020000040000fa
:04028c00c4030000a7
:020000040000fa
:04029000c4030000a3
:020000040000fa
:04029400c40300009f
:020000040000fa
:04029800c40300009b
:020000040000fa
:04029c00c403000097
:020000040000fa
:0402a000c403000093
:020000040000fa
:0402a400c40300008f
:020000040000fa
:0402a800c40300008b
:020000040000fa
:0402ac00c403000087
:020000040000fa
:0402b000c403000083
:020000040000fa
:0402b400c40300007f
:020000040000fa
:0402b800c40300007b
:020000040000fa
:0402bc00c403000077
:020000040000fa
:0402c000c403000073
:020000040000fa
:0402c400c40300006f
:020000040000fa
:0402c800c40300006b
:020000040000fa
:0402cc00c403000067
:020000040000fa
:0402d000c403000063
:020000040000fa
:0402d400c40300005f
:020000040000fa
:0402d800c40300005b
:020000040000fa
:0402dc00c403000057
:020000040000fa
:0402e000c403000053
:020000040000fa
:0402e400c40300004f
:020000040000fa
:0402e800c40300004b
:020000040000fa
:0402ec00c403000047
:020000040000fa
:0402f000c403000043
:020000040000fa
:0402f400c40300003f
:020000040000fa
:0402f800c40300003b
:020000040000fa
:0402fc00c403000037
:020000040000fa
:04030000c403000032
:020000040000fa
:04030400c40300002e
:020000040000fa
:04030800c40300002a
:020000040000fa
:04030c00c403000026
:020000040000fa
:04031000c403000022
:020000040000fa
:04031400c40300001e
:020000040000fa
:04031800c40300001a
:020000040000fa
:04031c00c403000016
:020000040000fa
:04032000c403000012
:020000040000fa
:04032400c40300000e
:020000040000fa
:04032800c40300000a
:020000040000fa
:04032c00c403000006
:020000040000fa
:04033000c403000002
:020000040000fa
:04033400c4030000fe
:020000040000fa
:04033800c4030000fa
:020000040000fa
:04033c00c4030000f6
:020000040000fa
:04034000c4030000f2
:020000040000fa
:04034400c4030000ee
:020000040000fa
:04034800c4030000ea
:020000040000fa
:100400006f8e20000e7f22000e0188000000000089
:10041000000020000000e000020032000001200087
:100420002002880014000700d90007000000e00047
:1004300003003a0000fc2100010020000200370008
:100440000000200001002000810f70000100320038
:1004500014000700000020000000e000020032004d
:10046000000002000000000058120200000000001e
:100470000040da000000fe004440a9000001200016
:100480000000e0000300320000002000a00188000e
:100490004440a800000006008a1f78008b1f7800e7
:1004a0000000060091018800800478000000eb0045
:1004b0001a003700e284440032a0b4009905ba0063
:1004c000e284440032a0b4009906ba00e2844400f9
:1004d00032a0b4000006eb00476fde00fd07b2005b
:1004e000636ce10003003a00ebff07000000eb0043
:1004f0000a003700606ce10004003a00005deb0088
:100500008b05e900fdff3e00040037006168e10053
:10051000010032000086eb000b00070019c7ba008b
:100520001905ba000e04e00003003a000a00e000da
:10053000e0ff3a0000000600fe07b2009e018800be
:100540008a047800f5ff3700395dba008b05e900b1
:100550000c003200295dba008b05e900080032006a
:100560000c00e00003003a00e284440032a0b40032
:10057000f5ff370019ddba008b05e900faff3a00f4
:100580008904e800e184440032a0b40000000600c1
:10059000000000000000000000000000000000005b
:1005a0003600f800809fbe00829fbe00849fbe0080
:1005b000869fbe000000fa008020a9000000eb002a
:1005c000da0e07000080fa004f03be004f02be00a3
:1005d0004f01be004f00be003600f900004006008b
:1005e0003600f800809fbe00829fbe00849fbe0040
:1005f000869fbe000000fa00d30e07008040a900cd
:1006000010002000c90e07000080fa004f03be0052
:100610004f02be004f01be004f00be003600f90081
:10062000004006003600f800809fbe00829fbe009a
:10063000849fbe00869fbe000000fa008060a90073
:1006400020002000b90e07000080fa004f03be0012
:100650004f02be004f01be004f00be003600f90041
:10066000004006003600f800809fbe00829fbe005a
:10067000849fbe00869fbe000000fa008080a90013
:1006800030002000a90e07000080fa004f03be00d2
:100690004f02be004f01be004f00be003600f90001
:1006a000004006003600f800809fbe00829fbe001a
:1006b000849fbe00869fbe000000fa00880e0700df
:1006c0008400a9000080fa004f03be004f02be0064
:1006d0004f01be004f00be003600f900004006008a
:1006e0003600f800809fbe00829fbe00849fbe003f
:1006f000869fbe000000fa007e0e07008680a900db
:100700000080fa004f03be004f02be004f01be0042
:100710004f00be003600f900004006003600f80029
:10072000809fbe00829fbe00849fbe00869fbe0049
:100730000000fa00104180000000e00002003200da
:100740001041800000000100308e20001040780031
:100750008040e800308e200001487800208e200084
:1007600011c0b300014878008460a9000080fa003d
:100770004f03be004f02be004f01be004f00be003f
:100780003600f900004006000040da000000fe00dc
:10079000000005001400200092033700f4ff2f0032
:1007a000900337000001be00240007000470a7007a
:1007b00003f0a1006509b100160032000d003500fc
:1007c0006828e10006003500f0ff2f00f1ff270048
:1007d0000300e00013003b000100280000000500ba
:1007e00000004000818048008502e900fcff3a00db
:1007f00008003700f88f420002003c008000eb0048
:10080000000005008100d1000080d3008502e800cf
:10081000fcff3a000300e00002003b006000100013
:10082000e0801800000006004f89de008201780099
:10083000870337006011b80095033700c70ade0050
:10084000f107b200f50fb20008003200e1cf42001c
:10085000020032000170a00024000500810f70002a
:10086000010032000408050044000500810f7000fb
:1008700002003a00140005008502e9000000400073
:1008800081c04800fcff3b000170a000240005006f
:1008900007f82700078361000638e10004003a00ea
:1008a000f7072000878361008703710001003a0089
:1008b00003f0a200889fbe008a9fbe008c9fbe00ee
:1008c000470ade000480a100c71ade000580a100ef
:1008d000070028000785600087856100f70f20006a
:1008e0000720e1009e0032000728e1009c00320052
:1008f000010678000400e000b4003200f707200091
:10090000878060000170a0000500e000c000320098
:10091000f7072000878161000370a00005065200e0
:100920000f003a000b50e1000b0032000308e10019
:1009300002003a000200e1007e0032000204500092
:1009400083845800040031000001fd008101fd0096
:100950008402fd008a05fd006044b80021003700d4
:100960000520e10005003d000001fd008101fd00c2
:100970008402fd008a05fd00050652007a60e10050
:10098000050035000170a1004722dd008480700061
:100990008a807000630037006044b800ef02660090
:1009a00007ff2f00070666000500e0000600340080
:1009b000f08312008714dd000511de00071bdd0047
:1009c000060171008519de007060e1000500350048
:1009d0000904780082047800030178008001eb00ac
:1009e000700656000b50e10003003a000200400080
:1009f000838048000400370060041400e0841c0079
:100a000002005800838058000188a30006003200cd
:100a10008100d1000080d3008984d3000884d300f2
:100a20000402e800270037000178a30025003a00ff
:100a30000100e000030032008186cf006986560085
:100a40000a0037008c0020000000e00004003a009b
:100a500009007800880478000004eb00700252005e
:100a60008086cf000d0646000c06e9007060e100ac
:100a700006003500800078000900780088047800be
:100a80000004eb0070065600700252000c00e000fb
:100a90000c0034008c08dd00f00316000703de00b4
:100aa000868070000c00dd00074bde000600700041
:100ab0008c4cdd000743de00868474000c44dd00ae
:100ac0000c0252006120e10020003500610160004d
:100ad0000700280087816400f7ff270087836400f0
:100ae000070374000300e000060032008203730075
:100af000040032000000e800e08048000188a30004
:100b00000e003a00f70f20000720e1004a003d00e8
:100b10000170a1004722dd00810072008a80700010
:100b20000000be004f06be004f05be004f04be00d1
:100b3000000006006000b800faff37008100d10015
:100b40000080d3000402e800eeff370004017800c3
:100b500089017400a10107008a807000f1ff37004d
:100b6000f7010700070278000001fd008101fd0088
:100b7000f301070087027800850372000778a3005d
:100b8000040032000001fd008101fd0006020700a3
:100b9000e4ff3700850362000768a3000800320005
:100ba0000b50e10003003200f0ff2f00f1ff27009f
:100bb000dcff37000001fd008101fd00d9ff370097
:100bc0000468a300d7ff3200faff3700f8ff2700c0
:100bd000888360000b003a000000e00009003a0042
:100be0008303640082837300020032000200be00af
:100bf000ccff37000b50e100ceff3a000200be00f0
:100c0000c8ff370014002000810064003eff370059
:100c1000f8ff27008883610004003a000200e0002a
:100c200002003a008c007800beff3700150020005b
:100c30008301640039ff370001f82700000020001d
:100c400081007500b7ff3700889fbe008a9fbe00f5
:100c50008c9fbe001b0020000202be0005866800bb
:100c600006002800060666004709de00f20fb20003
:100c7000820032000243e80080003200c729de0013
:100c8000f30fb2007d0032000343e8007b00320026
:100c9000f107b2000170a000f507b2000570a000d6
:100ca000c708dd004903de00868070004700dd00d4
:100cb000c72add004923de00868272004722dd005c
:100cc00003055100040350008583580003003100e0
:100cd00000004000818048000a05e9008c1f780070
:100ce0008a9fbe0004005000858058000402420024
:100cf00085824a0000004000818048000005eb002a
:100d00000004be006033b8000406be000d48e100d8
:100d100056003100110009004dccd8000c01b8007c
:100d20000d02b8008481410060824a008283530032
:100d300003045c0084845c0060055d000a00e00040
:100d400025003a00800578000d40e100490031009f
:100d50008800780007007800110009004d88d8004d
:100d60000c01b8000d02b8008481410060824a0085
:100d70006003110083835b0004045c00e0845c007a
:100d80000900e00021003a004f01be000300e0002e
:100d90002b003200e3016000070673008c817100b4
:100da00001003200640070004200de004e5edd0093
:100db0000c007000c258de0001e0a00083010700b3
:100dc000cf017800818071004f06be004f05be0044
:100dd0004f04be00000006008c8343000d044c004d
:100de000e0844c0060054d000000e9000a00e000ce
:100df000d4ff32008c8343000d044c00e0844c008f
:100e000060054d000000e900ceff37000c034300f1
:100e10008d834b0060044c00e0844c000000e9002e
:100e20000900e000d8ff32000c0343008d834b0023
:100e300060044c00e0844c000000e900d2ff370061
:100e40004200de004e5edd000c007000c258de0085
:100e500001e0a000cf0178000300e000daff3200db
:100e600060001000e0801800d7ff3700f0ff2f006f
:100e7000aaff3700f0ff2f00b9ff37000404be00bf
:100e80002f010700870678000004fd008104fd00a3
:100e90002b010700078366000678a30003003200d9
:100ea0000960a7000800be002c0037000d78a300e1
:100eb000020032000800be00280037000778a300b7
:100ec00026003a0001f0a10009f0a1000668a30085
:100ed00003003200f1ff2700f0ff2f00baff3700b8
:100ee0000d68a300030032000800be008c80700073
:100ef000b5ff37000768a30007003a000648a300c3
:100f000003003200f1ff2700f0ff2f00aeff370093
:100f10000d48a300030032006000b8008c80700010
:100f2000a9ff37000748a3000400320001f827009a
:100f3000000020008c807000a3ff370076010700be
:100f40000004fd008104fd00020578007201070025
:100f50000802be008a01780059ff37000160a00036
:100f6000120220003241880097ff37000100e000a4
:100f7000120032000500e00010003200889fbe0021
:100f80008a9fbe008c9fbe000006eb0001f8a30004
:100f90000300320060001000e08018000cf0a00098
:100fa00005f8a3000300320060021200e0821a007c
:100fb0000cf0a2008005eb0041ff37006000b80094
:100fc0000200050003836800070028000703630090
:100fd000470ade000480a100c71ade000580a100d8
:100fe000f70f20000720e100420032000728e1004f
:100ff00040003200889fbe008a9fbe008c1f780090
:10100000f107b200f307b2000400e0006400320010
:101010000170a0000500e000680032000370a0002d
:1010200085054200eb07b1000204b8000302b800d6
:101030008484440060854a00020ab8008484440025
:101040000a854a00030ab80004054500040033007d
:101050000804d0008984d2000a85d2008b05e900fb
:101060006158e1003d0035000210200009016100d7
:101070000308200089816100f7072000878364004e
:1010800008867300c84cde00c853dd0087847400f6
:101090004855de000300e0000600320082037600bf
:1010a000040032008904e80060054d000a88a300ae
:1010b0000c003a00f70f20000758e10044003d0003
:1010c0000a70a100c75ddd000a8575008a00730003
:1010d000090078004f0678004f05be004f04be009f
:1010e000000006000a05d1008984d3008b05e800c2
:1010f000f0ff3700881f7800060478009000070092
:10110000070278000001fd008101fd008c0007004e
:1011100087027800850372000778a300050032007b
:101120000001fd008101fd009f0007004f047800d1
:1011300000000600850372000748a3000300320088
:10114000f0ff2f00f1ff2700f8ff3700000020001c
:1011500001f8270088807000f4ff370088017800cc
:101160004848dd00808171004848de00c850dd003d
:1011700001007000c850de00060478000b01780002
:101180001600070088807000d2ff37000500e000dd
:1011900005003200170020003a0007009dff3700cd
:1011a00081037000f9ff3a00860078004f0678004e
:1011b0004f05be004f04be00000005008303710010
:1011c000f9ff3200270020002e00070094ff3700af
:1011d00001f8270086807000f4ff37000100e0006e
:1011e00026003200610111007810e10023003c006c
:1011f0006022b8007010e100040035008002780021
:10120000010078008000eb00700151000200e00056
:101210000900340070031100062add00822ade0076
:101220008603dd00878272000200de00860bdd008f
:10123000070070008208de0084817100f4ff27003f
:1012400004826200848171000400280084826200ac
:101250006102600005f0a600000006000482710033
:10126000070032000000e800e080480000000600af
:101270000002be006000b800efff37006000b80059
:1012800000000600889fbe000004eb006138e1000a
:1012900016003a000100e00008003a00c800de0035
:1012a0004800dd00880020000100e00003003a0053
:1012b000c800de004800dd00680444008184cf00df
:1012c000e9845400060034008908dd00f08314002e
:1012d0008703de00878070000900dd0009044400f8
:1012e000610214004f04be00000006000300e0008d
:1012f00008003a00c811de004811dd008800200017
:101300000300e00003003a00c811de004811dd00d0
:10131000680444008384cf00e9845400060034004c
:101320008919dd00f08314008713de0087817100c6
:101330000911dd0009044400e1021400e9ff37004f
:101340002700200001f0a70017002000470bde0057
:10135000f60fb200040032000643e8000a00320033
:101360004702b3000000060001037800f607b20050
:101370000603700002003a000703b30000000600f5
:101380008702b3000000060001037800f607b200f0
:1013900006037000020032000770a0000000060083
:1013a0000760a000000006000478a30004003200db
:1013b0000578a300030032000168a30001003a0091
:1013c0000200be000160a000000006008101700064
:1013d000270032008002eb0001f8a3000300320076
:1013e00060001000e080180015002000f4072000c5
:1013f0000202420020003400f7032000870360004f
:1014000006042000000363000208200000016100c0
:101410004700de00c909dd0000807100c708de005a
:101420000600e00008003200870371000600320069
:101430001000b0000180b0000188a300020032005b
:10144000c108de000402e800f107b200f30f20003b
:101450000320e10003003d004722dd00810072000f
:101460002900370001f827000000eb0026003700b4
:101470006000b80000000600680212007f20e10052
:10148000020034006000b8001f0037006011b8008f
:101490007020e10004003500800178000100780030
:1014a0008000eb00700252000400e00009003400ec
:1014b000f00312000719dd008419de000703dd00c8
:1014c000868171000400de00070bdd00060070005d
:1014d0008408de00f7ff2700838363008703710021
:1014e0000600280003036300070032000700e00045
:1014f00003003a00610160000281730002003200c3
:101500001000b0000180b0000500a6000000060039
:1015100001f0a000000006004f0ade004709de00cf
:10152000f107b200f20fb2000b003200f207b10077
:101530000170a000c708dd00c901de0083807000d3
:101540004700dd000400a600000006006000100057
:10155000e080180000000600810f700001003a00d2
:10156000000006008182cf000500e00010003e0070
:101570008082cf00ee8242007028e1000400390032
:1015800007003e00800078000000eb000e003700ee
:10159000708312008600de000500dd000a003700bf
:1015a000708352008600dd000000eb00060037006b
:1015b000e28252008508dd00708312000603de001f
:1015c000868070000500dd007507b0000501ea00a7
:1015d0000400a6000000060060001000e080180073
:1015e00000000600889fbe008a9fbe00841f78000e
:1015f0007c0007004f00780011003300f0ff2f003f
:10160000838f6c0006003b00040565000a00a700fc
:101610000800370009f0a60010002000080037007d
:10162000820f5400838f5c000300390010002000fb
:1016300001003e000000200009f0a7000000ea00c1
:101640004f05be004f04be000000e0000000060091
:10165000881f7800030478000300e00007003d00c5
:1016600060001000e080180060011900e08119009e
:1016700002003b0001f02d000300370004000700ca
:1016800008f0a70001f0a0004f0478000000060059
:10169000889fbe008a9fbe00008270000402710015
:1016a00004827100260032000004be000200be0069
:1016b0006011b8006b092000950220000182cf0064
:1016c0000a0039000541b1000082cf00070039004f
:1016d0000541b1000982cf00040039000541b10085
:1016e0000882cf00010039000541b10005425200d7
:1016f000120032000a003b00828171006101640027
:101700008100d1000080d3008984d3000884d300f5
:101710008b05e8000442e800f7ff3a0007003700b5
:101720000804440089844c0000004800818048007f
:101730008b05e9000442e900f9ff3a0003000700c5
:101740004f05be004f04be000000060081002000cf
:10175000618055000b003d000b00200061fe2f0052
:101760000100e1001d00340082817100610164000c
:101770008904d1000884d3000000e800faff3a0091
:10178000710020006100640003007000020060002e
:101790000900320061044400e0844c000988a5007f
:1017a000050032008b05e8006808e10002003a00fd
:1017b0008904d1000884d300f20f20000258e10010
:1017c00005003d00c75ddd00f907b20089807500a6
:1017d00008007800000006000bf827008b00780056
:1017e000000005000004be0014fc07000003be005a
:1017f0000405be000200be0010fc0700844f750007
:1018000000000600000006000800fa00889fbe00e5
:101810008a9fbe008c9fbe000004be000200be0076
:10182000e2b79f00f3b79f00f6ff07008102780040
:1018300005f0a100000278000c0020000df8270040
:101840006fb19700ffb197008c0f52008d8f5a0037
:101850000a003e000800be00eaff0700810278008f
:1018600005f0a100000278006fb19700ffb197006a
:101870008c0f52008d8f5a00030036000800be0006
:101880000cfc0700980037000203be000000200097
:1018900001f82300800f5300818f5b0003003a00a2
:1018a0000800be00980007008f0037000802be0045
:1018b0004e3dde000b0020006000b80062006500b5
:1018c0004f4dde000b0020000a0570008b85700074
:1018d0008500780001f0a10008007800e00f5000ba
:1018e000e08f580007003a00e20f5500e08f5d00de
:1018f00033003200e30f5500e08f5d007b003a00bb
:10190000320037008702780005f0a1000602780057
:10191000e00f5200e08f5a003b0032008c0f520063
:101920008d8f5a002c003a00840f5000858f58008c
:1019300018003a00e20f5500e08f5d000900320008
:10194000e30f5500e08f5d0009003200e10f550004
:10195000e08f5d005b003200b8fd200099f42300a9
:101960006200370002002000030424000200370058
:101970000200200003042c00b0fd2000910424008c
:1019800090fd07000200200003e823008dfd070002
:1019900055003700e20f5500e08f5d00080032006f
:1019a000e30f5500e08f5d00080032006044b8008e
:1019b000e10f5500e08f5d004c003a004400370015
:1019c000b8fd20009904240048003700b8fd20002d
:1019d00099042c00450037000600200007d02000a5
:1019e0000403430085834b0086bf9f0097bf9f0081
:1019f000800f5300818f5b00030039008c0f500073
:101a00008d8f580005003a000a08a3003300320009
:101a1000b8fd200099fc2b00340037006033b8007b
:101a200062036500e00f5300e08f5b0008003200a6
:101a30000c0020000dd020000003460081834e00e2
:101a40006000b800840f5300858f5b0004003900ec
:101a50000800be007cfc0700010107002a00070007
:101a6000e10f5500e08f5d00050032001e003900d7
:101a7000e20f5500e08f5d000b003a0003003700d5
:101a80000004be0009f0a20018003700e2d22b00cb
:101a9000b33b230087fb07000001be00b0fd200020
:101aa0009104240005003700e2d22b00b33b230051
:101ab00080fb0700b2fd20009304240074fb0700a4
:101ac00009003700b8fd200099f42b00070037000b
:101ad000080020000900280004003700b8fd20009d
:101ae00099fc2300010037000004be000800be007e
:101af0004f06be004f05be004f04be000080fa0036
:101b000000000600000006000c00fa00889fbe00de
:101b10008a9fbe008c9fbe000004be004f09de00fd
:101b200003002000e2b79f00f3b79f008106780012
:101b30000df0a10000067800f0ff2f00f1c724008f
:101b4000800f5600818f5e00100036000800be0036
:101b5000ecff07008101780003f0a100000178008c
:101b60000000200001f82700800f5100818f5900ec
:101b7000b5003e000200200003382000a0fd200038
:101b800091fc23004bfb0700a6003700f0ff2f005d
:101b9000f1ed2300800f5600818f5e0011003e00a2
:101ba0000085eb00f0ff2f00f1972300800f560017
:101bb000818f5e0055003e00f0ff2f00f1072000ee
:101bc000800f5600818f5e009f003e000801be001e
:101bd0000800be00fbfc0700c0b79f00d1b79f0004
:101be000990037000800be009d0007000004be00f9
:101bf000f0ff2f0071f92300800f5600818f5e00e7
:101c000025003e00f0ff2f00f1f22300800f560068
:101c1000818f5e0011003e000801be000800be007a
:101c200024fb07000200200003f8230018fb070034
:101c30000005be0002002000030024000800be00d2
:101c40001cfb07000001be000a00be00fefb0700ef
:101c50000004be000005eb002c003700020020004d
:101c600003f823000800be0009fb07000005be00c2
:101c70000200200003f823000800be000dfb07004f
:101c80000001be000a00be00effb07000004be001a
:101c90001a0020001d003700f0ff2f00b1012400c2
:101ca000800f5600818f5e0012003e00020020006f
:101cb00003fc23000800be00f5fa07000005be0083
:101cc0000200200003fc23000800be00bdfc07004a
:101cd0000200200003f82300f6fa07000001be000e
:101ce0000a00be00d8fb07000004be002a00200046
:101cf000060037000801be000000200001f82b009c
:101d0000d1fb07000004be003a0020000801be001d
:101d10000800be00abfc07000002be000001be00d0
:101d200084bf9f0095bf9f00a6fc07000006be0071
:101d300052c22a00c3d72300a2fc0700d2502f00b2
:101d400013e12300dbfa07000001be000c00be0017
:101d50009cfc070092aa2a00a3ea2300d5fa0700f8
:101d60000001be000fba97009fba97000400be00a2
:101d700094fc07000002be0072242100a3dd2b00aa
:101d80000c00be0084bf9f0095bf9f008dfc070024
:101d900082a92c00c3e42300bdfa07000001be00a5
:101da0000c00be0087fc07000001be000fba9700c0
:101db0009fba9700e10f450009003a000400be00f9
:101dc000bcfa07000001be000800be007dfc070051
:101dd0000001be000800be00adfa07001900370080
:101de0004255dd002c8c20000a0646000400be008f
:101df000b0fa07000001be000800be0071fc070039
:101e0000228d20000a0541001a01be00a0fa070039
:101e10000801be009efa07000001be001c00be00c3
:101e20009bfa07006fb19700ffb19700e00f5100d8
:101e3000e08f5900030032000004be0009f0a20048
:101e4000010037000004be000800be004f06be00bf
:101e50004f05be004f04be000080fa0000000600df
:101e60000001be008300780001f0a10002007800ac
:101e700000000600f2874700889fbe008a9fbe00d0
:101e80008c9fbe008e1f78000003be00040020005f
:101e900005f82f000002420081824a00f2ff2f0065
:101ea000f3f72700820f5200838f5a001b00360081
:101eb0000001400081814800e00f5100e08f59008f
:101ec00006003a000001be003efc07000001be0013
:101ed0000000200001f82b0008003700e00f500040
:101ee000e08f580007003d001202200022478800c2
:101ef0000001be0066fa07006011b80052fb07003f
:101f0000790037000200200003c024002dfc0700e8
:101f10000003be007efe2f000a003700820f500033
:101f2000838f580070003e006000b800020020005f
:101f300003f82300820f5300838f5b006a00320096
:101f40000007eb00d0b02f00a104200006034000e2
:101f500087834800fe07b10087007800f107b200d0
:101f600006007800324f200053f3230000004100a8
:101f7000818049000200200003f82300d6b79f00ab
:101f8000e7b79f0042fa07000004be0002002000ed
:101f90000300240047fa07000001be000800be004d
:101fa00029fb07000002be000001be00f4b79f003d
:101fb00085bf9f0003fc07000006be000001be00b5
:101fc00000fc07000005be000200200003f0230013
:101fd0000800be00fbfb07000801be00f9fb07007c
:101fe000b0b79f00c1b79f005fb39700efb39700f2
:101ff000473bde0006004700cf80de000afa0700fc
:1020000090b79f00a1b79f00e29e2e0013e9230026
:102010000a00be00ebfb0700a2aa2a00a3f22300dd
:1020200024fa07000001be000c00be00e5fb07001b
:102030000006be0062e2290083e723000a00be001a
:10204000e0fb070032e12c00c3ec230019fa070083
:102050000001be000a00be00dafb07000001be005e
:102060000c00be0013fa07000001be003fb097004d
:10207000cfb097000ffa07000001be007fb29700b3
:102080008fba97000400be00cefb07000005be001b
:10209000127d2f00737123001fb09700afb097001f
:1020a000c8fb07000001be000a00be0001fa0700dd
:1020b0003fb19700cfb19700f5f907000801be00c6
:1020c000fcf907000004be000218270013f32300e8
:1020d0001fb09700afb09700bafb07000001be0029
:1020e0000800be00f3f907004f0778004f06be0056
:1020f0004f05be004f04be002f01b10000000600d6
:10210000889fbe008a9fbe008c9fbe000004be0058
:102110000400200005f82700858360000403780090
:10212000840f5300858f5b0007003a000801be0052
:102130000800be00a3fb07000001be000800be00af
:10214000dcf9070010003700e00f5000e08f580066
:102150000f003c008101780003f0a100000178002d
:10216000e00f5100e08f59006a0032001002200099
:10217000204788000801be000800be00c4f907001f
:102180000001be00b0fa07000004be006100370085
:10219000478cde00cf8cde00e00f5400e08f5c0047
:1021a0000f003a006044b80004003700000040000f
:1021b0008180480061044400e0844c000400200059
:1021c000050820008181620004017800e00f5100c1
:1021d000e08f5900f5ff320061041400e0841c0018
:1021e000f807b1000980b10081017800f307b2005f
:1021f000000178000200be000170a0000808a300e2
:102200000200320000004000818048008984d10033
:102210000884d30000004000818048009401200021
:1022200002002000031020006055b8006066b8006e
:102230000c0341008d834900800f5300818f5b00a8
:1022400006003c0006064100878649000600500053
:10225000878058000a0541008b8549000000400036
:10226000818048008301d1000281d3000402e9008b
:10227000efff3a00e00f5000e08f58001b003200e3
:102280000226240023da20000000200001f82300a9
:102290007ff907000200200003f823003ff9070040
:1022a0000000e000110035000226240023da20009f
:1022b0000000200001f823007ef907000200200042
:1022c00003f8230035f907000000e00003003400a4
:1022d00062054500e0854d00040037006000b8004d
:1022e000610065000005450081854d00c744dd00a3
:1022f000080020000000200001f023000804400036
:10230000898448008b85d1000a85d30008044500e4
:1023100089844d000800be004f06be004f05be0078
:082320004f04be00000006009e
:020000040000fa
:1023280030750000983a00004c1d0000a60e000011
:102338005307000052000000e1ab0000120000004b
:020000040000fa
:102348000000fa002023a8000080fa000000060020
:102358000000fa002023a9000080fa00000006000f
:102368000200fa00000f78001e007800e20f50000b
:1023780019003200e20f500005003e000000e000a6
:102388000a003200e10f50000d003200280037002b
:10239800e40f50001c003200e40f50001400390014
:1023a800e50f50001e00320021003700411980005f
:1023b80000ff2f0000806000401988001c003700d3
:1023c8004119800000ff2f00008060000000a0007d
:1023d80040198800160037004119800000ff2f00bf
:1023e800008060009000b30040198800100037009a
:1023f8004119800000ff2f0000806000a000b3009a
:10240800401988000a0037004119800000ff2f009a
:1024180000806000b000b300401988000400370055
:1024280040198000f000b300401988000000000047
:102438000080fa00000006000400fa001007980067
:1024480001188000010f78001e0078000080fa0053
:10245800000006000400fa00100798000019800028
:1024680000407800614060000080fb0000f0a70099
:102478000000ea000000ea004f00de00004f78008c
:102488001e4078000080fa00000006000000fa00f4
:102498000600fc0011028000f141b2001102880020
:1024a8000080fa00000006000000fa00040007009f
:1024b80029000700100020000080fa000000060034
:1024c8000200fa000000eb00000f78003107070057
:1024d800cd62a800cc82a800c442a80000842000d5
:1024e8002d020700808620002b020700e7ff070067
:1024f8007d030700a90307000004e00009003a0073
:102508001e0fe80000c4290001002000130707007f
:10251800300620009e007800808f5000f4ff3600bf
:102528000100370000000000300620009e007800ff
:10253800808f5000020036001000200020408800e4
:1025480074040700c482a800db050700c442a90080
:102558000080fa00000006000000fa002040800019
:102568000000e000010032002501070000c8bf009c
:102578000004a2000004e0000900320001c8bf0006
:102588000004a2000004e0000500320002c8bf00f9
:102598000004a2000004e000010032002d00070042
:1025a80001000700edff37000000fa0000c8bf0077
:1025b8000004e000050032000068ef003300070067
:1025c8004e000700d8000700bb05070001c8bf0080
:1025d8000004e000080032000168ef002300070053
:1025e8008001eb00c2892000618920000089200059
:1025f800630407004100070002c8bf000004e000b0
:10260800120032000268ef0018000700d50007002a
:1026180003c8bf000004e0000c0032000368ef00ac
:102628001ac8bf00e14f500004003a001700070025
:1026380032000700bc000700040037001ac8bf00ba
:10264800e24f500001003a00d50007000080fa0070
:10265800000006000000fa00e2030700a6040700d5
:102668000040fe000080fa00000006000000fa00aa
:10267800ac040700e603070000c42900010020009d
:10268800b60607000080fa00000006000000fa0005
:102698008001eb00c28920006189200000892000a8
:1026a800370407000000eb00f700070009010700e6
:1026b8004040880010002000f30007003f01070099
:1026c8005040880020002000ef0007006e0107003e
:1026d8006040880030002000eb0007006a01070016
:1026e8007040880040002000e700070066010700ee
:1026f800804088000080fa00000006001c00fa00f4
:10270800889fbe008a9fbe0080448000cf80de0084
:1027180043f80700020020000360240048f907007e
:10272800008fbe0090448000cf80de003cf8070098
:10273800020020000360240041f9070020079800e8
:1027480031079800a0448000cf80de0034f80700ed
:10275800020020000360240039f9070040079800b0
:1027680051079800b0448000cf80de002cf80700a5
:10277800020020003328240031f907006007980080
:1027880071079800c0448000cf80de0024f807005d
:10279800020020003328240029f90700000f9800c0
:1027a800110f98004e019000de0190002e0090005d
:1027b800be00900012fc070002ee220053262400ff
:1027c800fef90700200f9800310f98001e00be0088
:1027d8000004be0009f0a2002e019000be01900086
:1027e8002e009000be009000f4f907000005be001e
:1027f8004e019000de0190004e009000de00900037
:10280800eef907000001be000a00be0027f8070025
:1028180039fe07000001be000800be0008f90700e5
:10282800b7fc070002ee220053262400e3f9070054
:10283800400f9800510f9800f6282c0057c7230026
:102848006e029000fe0290002e099000be099000d2
:10285800008420007a01070090408800a140880089
:10286800f6282c0057c723000e0a90009e0a9000f5
:102878004e099000de099000808620007001070054
:10288800b0408800c140880090408000a14080008e
:1028980002002000832c2400c8f90700bff70700b6
:1028a8000000780040418800b0408000c1408000ae
:1028b80002002000832c2400c0f90700b7f70700a6
:1028c8000000780050418800d044800060418800b2
:1028d800e044800070418800f04480008041880016
:1028e800004580009041880040408000a041880059
:1028f80050408000b041880060408000c04188009e
:1029080070408000d041880080408000e04188000d
:1029180020408000f04188004f05be004f04be00f3
:102928000080fa00000006000000fa00a702070075
:102938008082200081c1b300bc0207000004a2000d
:102948000004e0000300320030002000204088002e
:10295800100307001d030700a80207000080fa0003
:10296800000006000000fa00fd0207000004e00075
:102978000900320011c0b30060802000e1020700a6
:1029880006c8bf001ae8b70010c0b30003e8b700d4
:10299800070307000d0307000080fa000000060087
:1029a8000000fa001bc8bf000080fb000000e80020
:1029b80000017800d0cc2c000010b8004208de00de
:1029c8006500b90000007800000051000040780060
:1029d8001be8b7001bc8bf000080fb008000400058
:1029e8004019290000804000100078008904070081
:1029f8000000eb00940407000080fa0000000600c5
:102a08000200fa00204080000000e0001b003200b5
:102a18000000eb00000f780010003700201680003f
:102a28004200de00614060000004a20061406000d6
:102a38000080fb00610060004200dd00211680007c
:102a48000120a10001007000201688000024240045
:102a5800f1002000c10507001e0fe800204080009b
:102a6800000040009e0f5000ecff3c0023ff0700d1
:102a7800adff07000428ef00010037000000000048
:102a88000080fa00000006000200fa00000f78003b
:102a98001e00780032fe070029fe0700000520000e
:102aa80001002000ad05070029fe07000000000016
:102ab8001e00780067fe07000004a2000004e00082
:102ac800fbff3a001e0078005bfe07000080fa005a
:102ad800000006000e00fa00889fbe0060079800fc
:102ae8006e0090008000eb0050f7070002002c00f9
:102af800f347240052f807000200200003022400d4
:102b08002ef90700008fbe0002002400c3612400d4
:102b18001e00be0029f907000004be001e01be0009
:102b2800000020000102240057f707000001be0042
:102b38000800be0042f807002007980031079800f7
:102b480002002400c36124002e009000be00900003
:102b58003bf80700c5fc0700c2b22b0043982300ce
:102b680016f90700f2f02c00b3b523004ff7070061
:102b78000001be000000200001f8230030f8070023
:102b88004007980051079800323329008338240001
:102b98004e009000de0090003bf707000200200086
:102ba800832c240005f90700fcf6070000007800d4
:102bb8004f04be000080fa00000006000600fa007c
:102bc800881f7800200798002e0090008000eb00f6
:102bd80016f7070002002c00f347240018f8070036
:102be8000200200003022400f4f807000001be00e0
:102bf8002ef70700008fbe0018c0b30062662600db
:102c0800630824001e00be00e2f607000000e00092
:102c180001003d000044eb000804e000020032001f
:102c2800400620001500370018c0b300d2cc2c0095
:102c3800c30424001e00be00d4f607000000e00014
:102c4800010034000044eb000804e00002003200f8
:102c58000000eb0009003700d2cc2c00c30424008c
:102c68001e00be0008f7070002002000832c240085
:102c7800d2f80700c9f60700000078004f04780072
:102c88000080fa00000006000e00fa0060079800b5
:102c98006e0090008000eb00e4f6070002002c00b4
:102ca800f3472400e6f7070002002000030224008f
:102cb800c2f80700008fbe000200200003fa2300bc
:102cc8001e00be00f0f6070002002000831c24004e
:102cd800dbf7070020079800310798000200200062
:102ce800030824002e009000be009000b3f80700ef
:102cf80002002000030a2400d1f7070040079800cb
:102d08005107980002402200439724004e0090008b
:102d1800de009000a9f80700a0f607000000780080
:102d28000080fa00000006000e00fa006007980014
:102d38006e009000cf80de00b9f607000240220046
:102d480043972400bef70700008fbe00723b2400a3
:102d5800a32325001e00be0098f80700200798004e
:102d68003107980072712b00138d23002e009000fc
:102d7800be00900091f8070040079800510798009e
:102d88004e009000de00900084f6070000007800f6
:102d98000080fa00000006000200fa00000f780028
:102da8001e017800f026210031a823000089be000a
:102db8001e01780060ba290041b423002001980060
:102dc800310198001e017800f0282c0051cf230013
:102dd80040019800510198001e0178006000b80079
:102de80060019800710198001e0178006000b80029
:102df80000099800110998001e0178006000b800c9
:102e080040099800510998001e0178006000b80038
:102e180060099800710998001e0178006000b800e8
:102e280000119800111198001e0178006000b80088
:102e380020119800311198000080fa000000060067
:102e48002600fa00889fbe00400f9800520f980095
:102e5800630f9800740f98000517980016179800cc
:102e6800271798004e0890009008900000089000de
:102e78000001be007e0890008e10900082f60700c8
:102e88004e09900020099800310998004e089000da
:102e980060049000f00490004e089000b008900084
:102ea800200890001e119000ae11900043f8070012
:102eb8000001be000800be007cf607004e09900025
:102ec80060019800710198004e089000400c900035
:102ed800d00c90004e089000b01090002010900088
:102ee8001e119000ae11900034f807000002be00d9
:102ef8004e089000f0089000600890000001be00a5
:102f08000400be0060f607000002be004e089000f4
:102f180090109000001090000001be000400be0058
:102f280059f607000002be004e0890001000be00cf
:102f38000001be000400be005cf607001e119000f0
:102f4800ae1190001df807000001be000800be0089
:102f580056f607004e09900040099800510998005c
:102f68004e089000600c9000f00c90004e08900005
:102f7800b0109000201090001e119000ae1190002b
:102f88000ef807000001be000800be003ef607006c
:102f98004e09900060099800710998004e08900049
:102fa80000149000901490004e089000b01090000b
:102fb800201090001e119000ae119000fff707003e
:102fc8000001be000800be002ff607004e09900061
:102fd80000119800111198004e08900020149000dc
:102fe800b01490004e089000b000900020009000af
:102ff8001e119000ae119000f0f707000001be000e
:103008000800be0029f607004e099000201198001c
:10301800311198004e089000f00090006000900078
:103028000001be005e089000ee08900016f607004a
:10303800008fbe004e089000400a9000d00a900011
:103048004e089000d0009000400090000001be00a3
:103058000400be0015f60700200798003107980005
:103068004e089000d0089000400890002e01900073
:10307800be019000f2f60700000f9800110f9800ab
:103088004e08900090109000001090002e019000c3
:10309800be019000eaf60700200f9800310f980053
:1030a8004e08900060049000f00490000e08900014
:1030b8009e0890001e01be00c0f707000001be0078
:1030c8000800be00f9f507004e099000600198005d
:1030d800710198004e089000000c9000900c900030
:1030e8002e089000be0890001e01be00b3f707002e
:1030f8000001be000800be00ecf507004e09900074
:1031080000099800110998004e08900040099000a5
:10311800d009900042079800530798004e08900085
:1031280060099000f0099000620798007307980002
:103138004e089000400c9000d00c90000e089000b3
:103148009e0890004e019000de0190009bf707005a
:103158000001be000800be00cbf507004e09900034
:1031680040099800510998004e089000600c9000a2
:10317800f00c90000e0890009e0890006e019000e0
:10318800fe0190008df707000001be000800be0098
:10319800bdf507004e099000600998007109980074
:1031a8004e08900000149000901490002e08900093
:1031b800be0890004e019000de0190007ff70700e6
:1031c8000001be000800be00aff507004e099000e0
:1031d80000119800111198004e08900020149000da
:1031e800b01490002e089000be0890006e01900068
:1031f800fe01900071f707000001be000800be0044
:10320800a1f507004e09900020119800311198008f
:103218004e089000f0009000600090004f04be003f
:103228000080fa00000006000200fa00004f780053
:1032380011479800cd62a9001e4078000054a000f4
:103248004c0207001e4090004a020700cd62a80009
:103258000080fa00000006000800fa0020479800e5
:103268002107980062479800cd62a9002e4090007f
:103278000054a0003f0207000040eb00004f780018
:10328800060037001e80fb00ae0090000080400062
:1032980010407800370207001e4fe8006e4090008b
:1032a8009e40780080cf5000f6ff3900cd62a8001c
:1032b8000080fa00000006000400fa002047980089
:1032c800cd62a9002e4090002a02070000c0eb0042
:1032d80028020700004f7800cd62a8001e40780041
:1032e8000080fa00000006000600fa00cd82a9005e
:1032f800cd62a80000a82100610020009703070004
:10330800e1c0b3000040eb00c7ff070000e2240063
:10331800010020009103070011c0b30010c0b300e2
:10332800c1ff070011c0b30020c0b300beff0700f3
:1033380031c0b30030c0b300bbff0700c1c4b30045
:1033480050c0b300b8ff070061c0b30060c0b3004d
:10335800b5ff0700e119290004000900315f780072
:103368005e00b10052c0b3008e00780000c1b30007
:10337800b9ff070052c0b3008e007800a0c0b300a8
:10338800b5ff070081c1b30010c1b300a6ff070055
:103398001a0007000080fa00000006000200fa0088
:1033a80030c0b300c4ff0700004f78009e4078008b
:1033b80063c068000080fb000000e9004f00de00e9
:1033c800004078000080fa00000006000200fa00c1
:1033d800cd82a9000040eb00b7ff0700004f78003e
:1033e8001e4078000004a100804078000040eb00f7
:1033f8008dff07000080fa00000006000200fa00b6
:103408000040eb00acff0700004f78001e4078003a
:103418000004a000804078000040eb0082ff070015
:10342800cd82a8000080fa00000006000800fa001b
:103438002007980061479800cd62a90000cab30030
:10344800cc0107006e4090000080fb000001eb00fb
:10345800800078002e009000ce010700cd62a80001
:10346800cd82a800c0032000010020003b03070014
:10347800cd82a90080382100100798000d00370080
:1034880032000700004f78009e80fb0000032000f8
:10349800008060000000e0000a003a0040002000c0
:1034a800010020002d0307001e0090000000e90025
:1034b800100798001e0090000000e000f0ff3a009e
:1034c80001003700000000009e80fb000002200081
:1034d800008060000000e0000600320001c2b30076
:1034e80070c0b30050ff07002a00070010c0b300e7
:1034f80002003700270007000040eb000080fa00b8
:10350800000006000400fa00000f78002147980028
:10351800cd62a90010c6b300960107002e409000a6
:103528000080fb001e017800800078000000eb009e
:1035380098010700cd62a80001c4b30070c0b300b1
:1035480039ff07000080fa00000006000000fa00ba
:1035580070c0b30058ff07000080fa0000000600a2
:103568000200fa0070c1b30053ff0700004f780053
:103578001e80fb006100600000f0a7000000ea0068
:103588000000e9004f00de00004078000080fa00eb
:10359800000006000000fa00cd62a90010ceb300ba
:1035a80074010700cd62a8000080fa000000060040
:1035b8000000fa00cd62a90020ceb3006d0107001b
:1035c800cd62a8000080fa00000006000000fa00a2
:1035d80001c7b30070c0b30013ff07000080fa00f2
:1035e800000006000200fa000040eb0032ff07006e
:1035f800004f78001e4078000014a1008040780039
:103608000040eb0008ff07000080fa0000000600f9
:103618000200fa000040eb0027ff0700004f780087
:103628001e4078000014a000804078000040eb00a5
:10363800fdfe070000e2240001002000c702070089
:103648000080fa00000006000200fa00004f78002f
:1036580011479800cc82a9001e4078004501070058
:103668001e40900043010700cc82a8000080fa00a9
:10367800000006000400fa0020479800cc82a90048
:103688002e4090000074a0003a0107000040eb00b3
:1036980038010700004f7800cc82a8001e4078004f
:1036a8000080fa00000006000800fa00881f780071
:1036b800204798002107980062479800cc82a9000b
:1036c8002e4090000074a0002a0107000040eb0083
:1036d800004f7800070037001e80fb00ae00900006
:1036e800008440000040eb0022010700004c7800f5
:1036f8001e4fe8006e4090009e40780080cf50003a
:10370800f5ff3900cc82a8004f0478000080fa0049
:10371800000006000000fa0001c8b300b0c6b300fc
:10372800c9ff070000a82100610020008b020700e4
:1037380011c0b300b0c6b300c3ff070000c429001e
:10374800010020008502070081c0b300c0c1b3009a
:10375800bdff070081c0b300b0c1b300baff0700c6
:1037680001c1b30070c3b300b7ff070011c0b300b5
:1037780080c3b300b4ff07000080fa000000060011
:103788001600fa0070079800010f9800120f9800b1
:10379800230f9800e2c0b3008e007800b0c3b300d6
:1037a800c1ff07007e0090000000e0001a00320010
:1037b8001e4078000080fb00c800dd001e4090001d
:1037c8000080fb00810070007e00900001087800f6
:1037d8007e0090000080e800ae4090008180fb00f1
:1037e8004809dd00be4090008180fb0082807000a7
:1037f800010878007e00900064004000ce409000f0
:103808008180fb004809dd00de4090008180fb00dc
:1038180082807000010878002e0890000000e00007
:10382800080032006e4090000080fb00c800dd00f8
:103838007e4090000080fb00810070002e08900000
:10384800010878000e0890000000e0001a0032001d
:103858000e4890000080fb00c800dd001e48900064
:103868000080fb00810070000e08900001087800bd
:103878000e0890000080e800ae4890008180fb00b0
:103888004809dd00be4890008180fb0082807000fe
:10389800010878000e08900064004000ce489000af
:1038a8008180fb004809dd00de4890008180fb0034
:1038b80082807000010878001e0890000000e00077
:1038c8000b0032001e0890008000eb000108780011
:1038d8001e0890000080e8008000eb0001087800d6
:1038e8001e089000640040008000eb00010878008a
:1038f8000080fa00000006000200fa00b0c6b3001b
:103908005cff0700004f78001e4078000064a000ac
:1039180080407800b0c6b3004bff07000080fa0073
:10392800000006000200fa00b0c6b30051ff07000d
:10393800004f78001e4078000064a10080407800a5
:10394800b0c6b30040ff070000c4290001002000f2
:10395800020207000080fa00000006000000fa00da
:103968003003200010128800100020002012880068
:10397800c0002800001288000080fa00000006003d
:103988000400fa00000f78001107980000000000fa
:1039980000128000620060000000e000fcff3a00b6
:1039a8001e007800104078000080fb00401288005c
:1039b800000000000112800000022000008060006a
:1039c8000000e000fbff3a004012800080407800d1
:1039d8001e009000014878000080fa0000000600f0
:1039e8001800fa00100f9800210f9800320f980065
:1039f8000000eb00000f78000000eb0010079800b3
:103a08000000eb00700798000000eb00000f980022
:103a180010002000600798001e0890000000e000d9
:103a280005003a000000eb005007980070004700be
:103a38002007980004003700ee0090005107980016
:103a48009e089000210798003e0890000000e000c2
:103a580005003a000000eb00400798006e004700a0
:103a68003007980005003700ee00900041079800e5
:103a7800be08900031079800000000000012800086
:103a8800620060000000e000fcff3a001d00370003
:103a980000128000620060000000e00009003a00a7
:103aa8002e009000104078000080fb004012880033
:103ab800ae0090005e009000008040002007980053
:103ac8001e0fe80001128000000220000080600044
:103ad8000000e0000b003a004012800080407800af
:103ae8003e00900001487800be0090004e00900013
:103af80000804000300798001e0090000000e80099
:103b0800100798002e0890009e007800808f5000c3
:103b1800dfff39001000370001128000000220008a
:103b2800008060000000e0000b003a0040128000b6
:103b3800804078003e00900001487800be00900068
:103b48004e00900000804000300798001e00900052
:103b58000000e800100798009e0090002e089000d2
:103b6800808f5000ecff39001e0078000080fa00ba
:103b7800000006000400fa00204798000e80e800c4
:103b88008e0078007eff07001e4078000080fa0053
:103b9800000006000600fa00000f780011079800e0
:103ba800220798002e0190009e0090001e007800c9
:103bb8008bff07000080fa00000006000000fa00f2
:103bc800001280000080fa00000006000000fa00e1
:103bd8000021ef000053270010088800000028008b
:103be80020088800104180000000e00002003a0030
:103bf80020e42100280007008460a9009460a80040
:103c0800208e20008040eb00014878000080fa00f8
:103c1800000006000200fa00000f78009e007800fd
:103c280011088800208e20008040eb0001487800b1
:103c38000080fa00000006000000fa00100880006a
:103c48000080fa00000006000200fa00000f780069
:103c58009e00780001088800208e20008040eb003c
:103c6800014878000080fa00000006000000fa0011
:103c7800000880000080fa00000006000000fa003a
:103c880010c0b30000e8b7008460a9001200070064
:103c98000080fa00000006000200fa00000f780019
:103ca8009460a9009e007800114188009460a800e3
:103cb8000080fa00000006000000fa00208e2000b4
:103cc8008040eb00014878009460a80005e1a80056
:103cd8000080fa00000006000000fa0005e1a900d3
:103ce8009460a9000080fa00000006000200fa00b3
:103cf800208e2000104f78001e4078000004e0005d
:103d080003003200208e20008040eb00014878003c
:103d18001e4078000080fa00000006000000fa004b
:103d2800308e2000104078000080fb000080fa00f0
:103d3800000006000000fa00308e20008040eb00f2
:103d4800014878000080fa00000006000000fa0030
:103d580000002800001988002223ef002423ef0028
:103d68002823ef003023ef0000ec210005000700b6
:103d78000080fa00000006000000fa000080fa0047
:103d8800000006000200fa00000f78001e0078000c
:103d9800204188000080fa00000006000000fa00b8
:103da8002104800000002200008060000000e00084
:103db80006003200204180000000e00002003200ce
:103dc800204180000000010085a0a9000080fa00c1
:103dd800000006000000fa002023a8000080fa0076
:103de800000006000000fa002023a9000080fa0065
:103df800000006000800fa0030079800101980003b
:103e08004200de006f4060000080fb002007980041
:103e180000302000100798000000eb00000f780029
:103e28000b0037001e00780000004000be00900024
:103e3800008040009e009000910078000108780002
:103e48001e0090000080e800100798001e0fe80090
:103e58009e0078002e009000808f5000f1ff360001
:103e68001e0078000080fa00000006000000fa003a
:103e78004000200020168800cc22ef0030002000ef
:103e880000168800c00e2e00401688006820ef003b
:103e98006a20ef00c622ef00ce22ef00c003210007
:103ea80060198800113a8000f00b20000081600042
:103eb80060042000710520002374200080497800e8
:103ec80081497800824978004135800000fe2f0042
:103ed800008060000010a000403588000136800096
:103ee80000fe2f00008060000030a000003688002f
:103ef80001348000f00f2e00808060000030200028
:103f0800010070000034880001368000f00f2e0098
:103f1800808060000070200001007000003688007a
:103f28002136800000fe2f00008060009000b30062
:103f38002036880051368000f00f2e008080600007
:103f4800009020000100700050368800103a800070
:103f5800000178000260a0006004200071052000c4
:103f680023742000804978008149780082497800cc
:083f78000080fa0000000600c1
:020000040000fa
:103f8000a20800002000000000000000200800003f
:103f90000200000002000000ffff00001c080000fb
:103fa0000400000000000000e20800000200000021
:103fb00000000000220800000200000000000000d5
:103fc0002408000002000000000000002808000093
:103fd0007a00000000000000000800001c00000043
:103fe00000000000260800000200000000000000a1
:103ff000c208000020000000020000003863ed004d
:104000003eda0f00493f5e00987b3f00da0fc9009f
:104010003f693700ac31680021223300b40f14002f
:1040200033682100a2330000e40800000200000011
:08403000000000000000000088
:020000040000fa
:104038000000fa0000102300203a88004827ef000b
:104048007027ef007227ef007427ef00720020003e
:1040580080072000a10920003374200080497800df
:1040680081497800824978000001eb006004200053
:104078007105200023742000804978008149780068
:10408800824978000080fa00000006000000fa006b
:104098002105800080ff2f00008060000000a00044
:1040a800200588007105800080ff2f0000806000d7
:1040b8000010a0007005880021058000f0ff28008e
:1040c8008080600000002300010070002005880047
:1040d8000080fa00000006000000fa0010c0b300db
:1040e80002e8b7000080fa00000006000000fa00ad
:1040f80010c0b30001e8b7000080fa000000060015
:104108000000fa008400a9008200a8009400a8001a
:104118008680a9008220a9009680a8000080fa0065
:10412800000006000200fa00000f78009e007800e8
:10413800014188000000fe000080fa00000006002f
:104148000000fa00208a200080077800a08b200059
:0c415800000188000080fa000000060052
:020000040000fa
:10416400f03fb1000180b10006003500ee03090004
:1041740000000000403fb1000180b100fbff3d00a2
:104184001000b000203fb00002003500008009009c
:0841940000000000000006001d
:020000040000fa
:10419c000000fa0034ff0700bbff0700a3ff070075
:1041ac00edfd0700e8fe0700d4ff070086fe0700c0
:1041bc000080fa0000000600809fbe00ec805700d3
:1041cc0031007800e0408800110078001ee8b7004c
:0841dc004f00be0000000600c8
:020000040000fa
:020000040001f9
:0457f8009f7f00008f
:020000040000fa
:020000040001f9
:0457fc007f3d0000ed
:00000001FF
