:020000040000fa
:080000000002040000000000f2
:020000040000fa
:04000800c40300002d
:020000040000fa
:04000c00d00200001e
:020000040000fa
:0400100012030000d7
:020000040000fa
:04001400f0020000f6
:020000040000fa
:0400180032030000af
:020000040000fa
:04001c00c403000019
:020000040000fa
:04002000c403000015
:020000040000fa
:04002400c403000011
:020000040000fa
:04002800520300007f
:020000040000fa
:04002c00c403000009
:020000040000fa
:04003000c403000005
:020000040000fa
:040034008e03000037
:020000040000fa
:04003800c4030000fd
:020000040000fa
:04003c00c4030000f9
:020000040000fa
:04004000c4030000f5
:020000040000fa
:04004400c4030000f1
:020000040000fa
:04004800c4030000ed
:020000040000fa
:04004c00c4030000e9
:020000040000fa
:04005000c4030000e5
:020000040000fa
:04005400c4030000e1
:020000040000fa
:04005800c4030000dd
:020000040000fa
:04005c00c4030000d9
:020000040000fa
:04006000c4030000d5
:020000040000fa
:04006400c4030000d1
:020000040000fa
:04006800c4030000cd
:020000040000fa
:04006c00c4030000c9
:020000040000fa
:04007000c4030000c5
:020000040000fa
:04007400c4030000c1
:020000040000fa
:040078007003000011
:020000040000fa
:04007c00c4030000b9
:020000040000fa
:04008000c4030000b5
:020000040000fa
:04008400c4030000b1
:020000040000fa
:04008800c4030000ad
:020000040000fa
:04008c00c4030000a9
:020000040000fa
:04009000c4030000a5
:020000040000fa
:04009400c4030000a1
:020000040000fa
:04009800c40300009d
:020000040000fa
:04009c00c403000099
:020000040000fa
:0400a000c403000095
:020000040000fa
:0400a400c403000091
:020000040000fa
:0400a800c40300008d
:020000040000fa
:0400ac00c403000089
:020000040000fa
:0400b000c403000085
:020000040000fa
:0400b400c403000081
:020000040000fa
:0400b800c40300007d
:020000040000fa
:0400bc00c403000079
:020000040000fa
:0400c000c403000075
:020000040000fa
:0400c400c403000071
:020000040000fa
:0400c800c40300006d
:020000040000fa
:0400cc00c403000069
:020000040000fa
:0400d000c403000065
:020000040000fa
:0400d400c403000061
:020000040000fa
:0400d800c40300005d
:020000040000fa
:0400dc00c403000059
:020000040000fa
:0400e000c403000055
:020000040000fa
:0400e400c403000051
:020000040000fa
:0400e800c40300004d
:020000040000fa
:0400ec00c403000049
:020000040000fa
:0400f000c403000045
:020000040000fa
:0400f400c403000041
:020000040000fa
:0400f800c40300003d
:020000040000fa
:0400fc00c403000039
:020000040000fa
:04010000c403000034
:020000040000fa
:04010400c403000030
:020000040000fa
:04010800c40300002c
:020000040000fa
:04010c00c403000028
:020000040000fa
:04011000c403000024
:020000040000fa
:04011400c403000020
:020000040000fa
:04011800c40300001c
:020000040000fa
:04011c00c403000018
:020000040000fa
:04012000c403000014
:020000040000fa
:04012400c403000010
:020000040000fa
:04012800c40300000c
:020000040000fa
:04012c00c403000008
:020000040000fa
:04013000c403000004
:020000040000fa
:04013400c403000000
:020000040000fa
:04013800c4030000fc
:020000040000fa
:04013c00c4030000f8
:020000040000fa
:04014000c4030000f4
:020000040000fa
:04014400c4030000f0
:020000040000fa
:04014800c4030000ec
:020000040000fa
:04020800c40300002b
:020000040000fa
:04020c00d00200001c
:020000040000fa
:0402100012030000d5
:020000040000fa
:04021400f0020000f4
:020000040000fa
:0402180032030000ad
:020000040000fa
:04021c00c403000017
:020000040000fa
:04022000c403000013
:020000040000fa
:04022400c40300000f
:020000040000fa
:04022800520300007d
:020000040000fa
:04022c00c403000007
:020000040000fa
:04023000c403000003
:020000040000fa
:040234008e03000035
:020000040000fa
:04023800c4030000fb
:020000040000fa
:04023c00c4030000f7
:020000040000fa
:04024000c4030000f3
:020000040000fa
:04024400c4030000ef
:020000040000fa
:04024800c4030000eb
:020000040000fa
:04024c00c4030000e7
:020000040000fa
:04025000c4030000e3
:020000040000fa
:04025400c4030000df
:020000040000fa
:04025800c4030000db
:020000040000fa
:04025c00c4030000d7
:020000040000fa
:04026000c4030000d3
:020000040000fa
:04026400c4030000cf
:020000040000fa
:04026800c4030000cb
:020000040000fa
:04026c00c4030000c7
:020000040000fa
:04027000c4030000c3
:020000040000fa
:04027400c4030000bf
:020000040000fa
:04027800700300000f
:020000040000fa
:04027c00c4030000b7
:020000040000fa
:04028000c4030000b3
:020000040000fa
:04028400c4030000af
:020000040000fa
:04028800c4030000ab
:020000040000fa
:04028c00c4030000a7
:020000040000fa
:04029000c4030000a3
:020000040000fa
:04029400c40300009f
:020000040000fa
:04029800c40300009b
:020000040000fa
:04029c00c403000097
:020000040000fa
:0402a000c403000093
:020000040000fa
:0402a400c40300008f
:020000040000fa
:0402a800c40300008b
:020000040000fa
:0402ac00c403000087
:020000040000fa
:0402b000c403000083
:020000040000fa
:0402b400c40300007f
:020000040000fa
:0402b800c40300007b
:020000040000fa
:0402bc00c403000077
:020000040000fa
:0402c000c403000073
:020000040000fa
:0402c400c40300006f
:020000040000fa
:0402c800c40300006b
:020000040000fa
:0402cc00c403000067
:020000040000fa
:0402d000c403000063
:020000040000fa
:0402d400c40300005f
:020000040000fa
:0402d800c40300005b
:020000040000fa
:0402dc00c403000057
:020000040000fa
:0402e000c403000053
:020000040000fa
:0402e400c40300004f
:020000040000fa
:0402e800c40300004b
:020000040000fa
:0402ec00c403000047
:020000040000fa
:0402f000c403000043
:020000040000fa
:0402f400c40300003f
:020000040000fa
:0402f800c40300003b
:020000040000fa
:0402fc00c403000037
:020000040000fa
:04030000c403000032
:020000040000fa
:04030400c40300002e
:020000040000fa
:04030800c40300002a
:020000040000fa
:04030c00c403000026
:020000040000fa
:04031000c403000022
:020000040000fa
:04031400c40300001e
:020000040000fa
:04031800c40300001a
:020000040000fa
:04031c00c403000016
:020000040000fa
:04032000c403000012
:020000040000fa
:04032400c40300000e
:020000040000fa
:04032800c40300000a
:020000040000fa
:04032c00c403000006
:020000040000fa
:04033000c403000002
:020000040000fa
:04033400c4030000fe
:020000040000fa
:04033800c4030000fa
:020000040000fa
:04033c00c4030000f6
:020000040000fa
:04034000c4030000f2
:020000040000fa
:04034400c4030000ee
:020000040000fa
:04034800c4030000ea
:020000040000fa
:10040000af8820000e7f22000e018800000000004f
:10041000000020000000e000020032000001200087
:100420002002880014000700d90007000000e00047
:1004300003003a00e0fa210001002000020037002a
:100440000000200001002000810f70000100320038
:1004500014000700000020000000e000020032004d
:1004600000000200000000004e0d0200000000002d
:100470000040da000000fe004440a900a000200077
:100480000000e0000300320000002000a00188000e
:100490004440a800000006008a1f78008b1f7800e7
:1004a0000000060091018800800478000000eb0045
:1004b0001a003700e284440032a0b4009905ba0063
:1004c000e284440032a0b4009906ba00e2844400f9
:1004d00032a0b4000006eb00476fde00fd07b2005b
:1004e000636ce10003003a00ebff07000000eb0043
:1004f0000a003700606ce10004003a00005deb0088
:100500008b05e900fdff3e00040037006168e10053
:10051000010032000086eb000b00070019c7ba008b
:100520001905ba000e04e00003003a000a00e000da
:10053000e0ff3a0000000600fe07b2009e018800be
:100540008a047800f5ff3700395dba008b05e900b1
:100550000c003200295dba008b05e900080032006a
:100560000c00e00003003a00e284440032a0b40032
:10057000f5ff370019ddba008b05e900faff3a00f4
:100580008904e800e184440032a0b40000000600c1
:10059000000000000000000000000000000000005b
:1005a0003600f800809fbe00829fbe00849fbe0080
:1005b000869fbe000000fa008020a9000000eb002a
:1005c000c30e07000080fa004f03be004f02be00ba
:1005d0004f01be004f00be003600f900004006008b
:1005e0003600f800809fbe00829fbe00849fbe0040
:1005f000869fbe000000fa00bc0e07008040a900e4
:1006000010002000b20e07000080fa004f03be0069
:100610004f02be004f01be004f00be003600f90081
:10062000004006003600f800809fbe00829fbe009a
:10063000849fbe00869fbe000000fa008060a90073
:1006400020002000a20e07000080fa004f03be0029
:100650004f02be004f01be004f00be003600f90041
:10066000004006003600f800809fbe00829fbe005a
:10067000849fbe00869fbe000000fa008080a90013
:1006800030002000920e07000080fa004f03be00e9
:100690004f02be004f01be004f00be003600f90001
:1006a000004006003600f800809fbe00829fbe001a
:1006b000849fbe00869fbe000000fa00710e0700f6
:1006c0008400a9000080fa004f03be004f02be0064
:1006d0004f01be004f00be003600f900004006008a
:1006e0003600f800809fbe00829fbe00849fbe003f
:1006f000869fbe000000fa00670e07008680a900f2
:100700000080fa004f03be004f02be004f01be0042
:100710004f00be003600f900004006003600f80029
:10072000809fbe00829fbe00849fbe00869fbe0049
:100730000000fa00704180000000e000020032007a
:100740007041800000000100708820001040780097
:100750008040e80070882000014878006088200010
:1007600011c0b300014878008460a9000080fa003d
:100770004f03be004f02be004f01be004f00be003f
:100780003600f900004006000040da000000fe00dc
:1007900000000500f4ff2f00900337000001be00a9
:1007a000240007000470a70003f0a1006509b10050
:1007b000160032000d0035006828e1000600350003
:1007c000f0ff2f00f1ff27000300e00013003b00c3
:1007d0000100280000000500000040008180480062
:1007e0008502e900fcff3a0008003700f88f42005c
:1007f00002003c008000eb00000005008100d100f9
:100800000080d3008502e800fcff3a000300e0000e
:1008100002003b0060001000e080180000000600ad
:100820004f89de0082017800870337006011b8002d
:1008300095033700c70ade00f107b200f50fb200da
:1008400008003200e1cf4200020032000170a00037
:1008500024000500810f700001003200040805002b
:1008600044000500810f700002003a0014000500ea
:100870008502e9000000400081c04800fcff3b0009
:100880000170a0002400050007f82700078361001d
:100890000638e10004003a00f70720008783610072
:1008a0008703710001003a0003f0a200889fbe0098
:1008b0008a9fbe008c9fbe00470ade000480a10014
:1008c000c71ade000580a100070028000785600028
:1008d00087856100f70f20000720e1009e003200ad
:1008e0000728e1009c003200010678000400e000c7
:1008f000b4003200f7072000878060000170a0007c
:100900000500e000c0003200f70720008781610089
:100910000370a000050652000f003a000b50e100e2
:100920000b0032000308e10002003a000200e1007f
:100930007e0032000204500083845800040031001d
:100940000001fd008101fd008402fd008a05fd001b
:100950006044b800210037000520e10005003d009b
:100960000001fd008101fd008402fd008a05fd00fb
:10097000050652007a60e100050035000170a10013
:100980004722dd00848070008a8070006300370099
:100990006044b800ef02660007ff2f0007066600fc
:1009a0000500e00006003400f08312008714dd002b
:1009b0000511de00071bdd00060171008519de0050
:1009c0007060e100050035000904780082047800b9
:1009d000030178008001eb00700656000b50e10027
:1009e00003003a0002004000838048000400370002
:1009f00060041400e0841c0002005800838058004a
:100a00000188a300060032008100d1000080d300dd
:100a10008984d3000884d3000402e800270037004b
:100a20000178a30025003a000100e0000300320035
:100a30008186cf00698656000a0037008c002000ae
:100a40000000e00004003a00090078008804780003
:100a50000004eb00700252008086cf000d064600b5
:100a60000c06e9007060e1000600350080007800a7
:100a700009007800880478000004eb007006560036
:100a8000700252000c00e0000c0034008c08dd0005
:100a9000f00316000703de00868070000c00dd0006
:100aa000074bde00060070008c4cdd000743de00c3
:100ab000868474000c44dd000c0252006120e100c9
:100ac0002000350061016000070028008781640074
:100ad000f7ff270087836400070374000300e0002a
:100ae0000600320082037300040032000000e800b8
:100af000e08048000188a3000e003a00f70f2000b4
:100b00000720e1004a003d000170a1004722dd00fe
:100b1000810072008a8070000000be004f06be0097
:100b20004f05be004f04be00000006006000b80084
:100b3000faff37008100d1000080d3000402e800f2
:100b4000eeff37000401780089017400a10107005d
:100b50008a807000f1ff3700f70107000702780074
:100b60000001fd008101fd00f3010700870278000c
:100b7000850372000778a300040032000001fd0025
:100b80008101fd0006020700e4ff370085036200d3
:100b90000768a300080032000b50e1000300320098
:100ba000f0ff2f00f1ff2700dcff37000001fd0000
:100bb0008101fd00d9ff37000468a300d7ff320090
:100bc000faff3700f8ff2700888360000b003a0027
:100bd0000000e00009003a00830364008283730090
:100be000020032000200be00ccff37000b50e100d3
:100bf000ceff3a000200be00c8ff370014002000fc
:100c0000810064003eff3700f8ff27008883610001
:100c100004003a000200e00002003a008c00780074
:100c2000beff3700150020008301640039ff370044
:100c300001f827000000200081007500b7ff370091
:100c4000889fbe008a9fbe008c9fbe001b002000b4
:100c50000202be000586680006002800060666003f
:100c60004709de00f20fb200820032000243e800c2
:100c700080003200c729de00f30fb2007d00320091
:100c80000343e8007b003200f107b2000170a000ce
:100c9000f507b2000570a000c708dd004903de00bb
:100ca000868070004700dd00c72add004923de0092
:100cb000868272004722dd000305510004035000c4
:100cc0008583580003003100000040008180480007
:100cd0000a05e9008c1f78008a9fbe0004005000be
:100ce000858058000402420085824a0000004000ce
:100cf000818048000005eb000004be006033b800ae
:100d00000406be000d48e100560031001100090044
:100d10004dccd8000c01b8000d02b8008481410010
:100d200060824a008283530003045c0084845c0078
:100d300060055d000a00e00025003a0080057800ab
:100d40000d40e1004900310088007800070078007c
:100d5000110009004d88d8000c01b8000d02b80040
:100d60008481410060824a006003110083835b003c
:100d700004045c00e0845c000900e00021003a000b
:100d80004f01be000300e0002b003200e3016000d1
:100d9000070673008c81710001003200640070004e
:100da0004200de004e5edd000c007000c258de0026
:100db00001e0a00083010700cf017800818071006d
:100dc0004f06be004f05be004f04be0000000600e7
:100dd0008c8343000d044c00e0844c0060054d0002
:100de0000000e9000a00e000d4ff32008c834300d9
:100df0000d044c00e0844c0060054d000000e9004b
:100e0000ceff37000c0343008d834b0060044c0081
:100e1000e0844c000000e9000900e000d8ff320047
:100e20000c0343008d834b0060044c00e0844c00b5
:100e30000000e900d2ff37004200de004e5edd0018
:100e40000c007000c258de0001e0a000cf01780065
:100e50000300e000daff320060001000e0801800bc
:100e6000d7ff3700f0ff2f00aaff3700f0ff2f0059
:100e7000b9ff37000404be002f0107008706780081
:100e80000004fd008104fd002b01070007836600bc
:100e90000678a300030032000960a7000800be0026
:100ea0002c0037000d78a300020032000800be00bd
:100eb000280037000778a30026003a0001f0a100bf
:100ec00009f0a1000668a30003003200f1ff27002b
:100ed000f0ff2f00baff37000d68a30003003200b7
:100ee0000800be008c807000b5ff37000768a300c3
:100ef00007003a000648a30003003200f1ff270074
:100f0000f0ff2f00aeff37000d48a30003003200b2
:100f10006000b8008c807000a9ff37000748a3006c
:100f20000400320001f82700000020008c807000cf
:100f3000a3ff3700760107000004fd008104fd00d7
:100f400002057800720107000802be008a017800dd
:100f500059ff37000160a000120220009241880072
:100f600097ff37000100e000120032000500e000aa
:100f700010003200889fbe008a9fbe008c9fbe007a
:100f80000006eb0001f8a30003003200600010002f
:100f9000e08018000cf0a00005f8a3000300320068
:100fa00060021200e0821a000cf0a2008005eb0043
:100fb00041ff37006000b8000200050003836800ad
:100fc0000700280007036300470ade000480a10031
:100fd000c71ade000580a100f70f20000720e100fe
:100fe000420032000728e10040003200889fbe0026
:100ff0008a9fbe008c1f7800f107b200f307b20091
:101000000400e000640032000170a0000500e00070
:10101000680032000370a00085054200eb07b100b4
:101020000204b8000302b8008484440060854a00ca
:10103000020ab800848444000a854a00030ab80002
:1010400004054500040033000804d0008984d20060
:101050000a85d2008b05e9006158e1003d003500aa
:10106000021020000901610003082000898161004d
:10107000f70720008783640008867300c84cde00f1
:10108000c853dd00878474004855de000300e0008b
:101090000600320082037600040032008904e80072
:1010a00060054d000a88a3000c003a00f70f2000ed
:1010b0000758e10044003d000a70a100c75ddd0053
:1010c0000a8575008a007300090078004f067800d1
:1010d0004f05be004f04be00000006000a05d10007
:1010e0008984d3008b05e800f0ff3700881f780063
:1010f0000604780090000700070278000001fd0058
:101100008101fd008c0007008702780085037200d2
:101110000778a300050032000001fd008101fd00f9
:101120009f0007004f04780000000600850372004e
:101130000748a30003003200f0ff2f00f1ff270053
:10114000f8ff37000000200001f8270088807000b9
:10115000f4ff3700880178004848dd008081710085
:101160004848de00c850dd0001007000c850de00b5
:10117000060478000b0178001600070088807000d4
:10118000d2ff37000500e000050032001700200004
:101190003a0007009dff370081037000f9ff3a0015
:1011a000860078004f0678004f05be004f04be0051
:1011b0000000050083037100f9ff320027002000c2
:1011c0002e00070094ff370001f82700868070008a
:1011d000f4ff37000100e000260032006101110039
:1011e0007810e10023003c006022b8007010e1009c
:1011f0000400350080027800010078008000eb00d8
:10120000700151000200e000090034007003110079
:10121000062add00822ade008603dd008782720056
:101220000200de00860bdd00070070008208de0091
:1012300084817100f4ff27000482620084817100c0
:1012400004002800848262006102600005f0a600ac
:101250000000060004827100070032000000e80070
:10126000e0804800000006000002be006000b800f8
:10127000efff37006000b80000000600889fbe0046
:101280000004eb006138e10016003a000100e000c4
:1012900008003a00c800de004800dd008800200099
:1012a0000100e00003003a00c800de004800dd0055
:1012b000680444008184cf00e984540006003400af
:1012c0008908dd00f08314008703de00878070004a
:1012d0000900dd0009044400610214004f04be004f
:1012e000000006000300e00008003a00c811de001c
:1012f0004811dd00880020000300e00003003a00f0
:10130000c811de004811dd00680444008384cf006a
:10131000e9845400060034008919dd00f0831400cc
:101320008713de00878171000911dd000904440084
:10133000e1021400e9ff37002700200001f0a700b8
:1013400017002000470bde00f60fb2000400320049
:101350000643e8000a0032004702b300000006001e
:1013600001037800f607b2000603700002003a009d
:101370000703b300000006008702b3000000060068
:1013800001037800f607b200060370000200320085
:101390000770a000000006000760a0000000060023
:1013a0000478a300040032000578a3000300320093
:1013b0000168a30001003a000200be000160a00025
:1013c0000000060081017000270032008002eb005f
:1013d00001f8a3000300320060001000e080180054
:1013e00015002000f4072000020242002000340013
:1013f000f703200087036000060420000003630059
:1014000002082000000161004700de00c909dd007c
:1014100000807100c708de000600e000080032000e
:1014200087037100060032001000b0000180b00098
:101430000188a30002003200c108de000402e800b7
:10144000f107b200f30f20000320e10003003d008c
:101450004722dd00810072002900370001f82700d3
:101460000000eb00260037006000b8000000060016
:10147000680212007f20e100020034006000b80022
:101480001f0037006011b8007020e1000400350033
:1014900080017800010078008000eb0070025200ab
:1014a0000400e00009003400f00312000719dd0019
:1014b0008419de000703dd00868171000400de0070
:1014c000070bdd00060070008408de00f7ff270030
:1014d0008383630087037100060028000303630011
:1014e000070032000700e00003003a0061016000dd
:1014f00002817300020032001000b0000180b000d1
:101500000500a6000000060001f0a0000000060093
:101510004f0ade004709de00f107b200f20fb20009
:101520000b003200f207b1000170a000c708dd0017
:10153000c901de00838070004700dd000400a600c2
:101540000000060060001000e080180000000600a7
:10155000810f700001003a00000006008182cf0078
:101560000500e00010003e008082cf00ee824200c5
:101570007028e1000400390007003e008000780078
:101580000000eb000e003700708312008600de00c2
:101590000500dd000a003700708352008600dd0080
:1015a0000000eb0006003700e28252008508dd00f3
:1015b000708312000603de00868070000500dd00e7
:1015c0007507b0000501ea000400a600000006004f
:1015d00060001000e080180000000600889fbe0038
:1015e0008a9fbe00841f78007c0007004f007800af
:1015f00011003300f0ff2f00838f6c0006003b00ca
:10160000040565000a00a7000800370009f0a600dd
:101610001000200008003700820f5400838f5c0008
:10162000030039001000200001003e0000002000ef
:1016300009f0a7000000ea004f05be004f04be00fd
:101640000000e00000000600881f78000304780016
:101650000300e00007003d0060001000e08018007b
:1016600060011900e081190002003b0001f02d002b
:10167000030037000400070008f0a70001f0a000f5
:101680004f04780000000600889fbe008a9fbe00bd
:101690000082700004027100048271002600320092
:1016a0000004be000200be006011b8006b092000fb
:1016b000950220000182cf000a0039000541b100e7
:1016c0000082cf00070039000541b1000982cf0038
:1016d000040039000541b1000882cf000100390043
:1016e0000541b10005425200120032000a003b00e1
:1016f00082817100610164008100d1000080d3000b
:101700008984d3000884d3008b05e8000442e800f4
:10171000f7ff3a00070037000804440089844c00b2
:1017200000004800818048008b05e9000442e90080
:10173000f9ff3a00030007004f05be004f04be004a
:101740000000060081002000618055000b003d0074
:101750000b00200061fe2f000100e1001d0034009d
:1017600082817100610164008904d1000884d30082
:101770000000e800faff3a007100200061006400f8
:1017800003007000020060000900320061044400a0
:10179000e0844c000988a500050032008b05e800b4
:1017a0006808e10002003a008904d1000884d300ef
:1017b000f20f20000258e10005003d00c75ddd008a
:1017c000f907b20089807500080078000000060063
:1017d0000bf827008b007800000005000004be0015
:1017e00014fc07000003be000405be000200be009a
:1017f00010fc0700844f750000000600f2874700c8
:10180000889fbe008a9fbe008c9fbe008e1f7800fe
:101810000003be000400200005f82f000002420073
:1018200081824a00f2ff2f00f3f72700820f520057
:10183000838f5a001b003600000140008181480060
:10184000e00f5100e08f590006003a000001be0091
:10185000dafd07000001be000000200001f82b00a7
:1018600008003700e00f5000e08f580007003d00ef
:1018700012022000424488000001be0002fc070062
:101880006011b800eefc070079003700020020006c
:1018900003c02400c9fd07000003be007efe2f0028
:1018a0000a003700820f5000838f580070003e00fe
:1018b0006000b8000200200003f82300820f5300ec
:1018c000838f5b006a0032000007eb00d0b02f006e
:1018d000a10420000603400087834800fe07b100f2
:1018e00087007800f107b20006007800324f200030
:1018f00053f32300000041008180490002002000d2
:1019000003f82300d6b79f00e7b79f00defb070070
:101910000004be000200200003002400e3fb0700d7
:101920000001be000800be00c5fc07000002be00aa
:101930000001be00f4b79f0085bf9f009ffd070018
:101940000006be000001be009cfd07000005be00b1
:101950000200200003f023000800be0097fd0700ee
:101960000801be0095fd0700b0b79f00c1b79f00fa
:101970005fb39700efb39700473bde0006004700d8
:10198000cf80de00a6fb070090b79f00a1b79f00a5
:10199000e29e2e0013e923000a00be0087fd070027
:1019a000a2aa2a00a3f22300c0fb07000001be0088
:1019b0000c00be0081fd07000006be0062e22900a7
:1019c00083e723000a00be007cfd070032e12c0003
:1019d000c3ec2300b5fb07000001be000a00be00f7
:1019e00076fd07000001be000c00be00affb070043
:1019f0000001be003fb09700cfb09700abfb0700df
:101a00000001be007fb297008fba97000400be00ad
:101a10006afd07000005be00127d2f0073712300d0
:101a20001fb09700afb0970064fd07000001be0033
:101a30000a00be009dfb07003fb19700cfb19700a1
:101a400091fb07000801be0098fb07000004be00e0
:101a50000218270013f323001fb09700afb09700c0
:101a600056fd07000001be000800be008ffb070006
:101a70004f0778004f06be004f05be004f04be0062
:081a80002f01b1000000060077
:020000040000fa
:101a880030750000983a00004c1d0000a60e0000ba
:041a980053070000f0
:020000040000fa
:101a9c000200fa00a70907009680a8009400a8008d
:101aac0040080700cd62a800cc82a800c442a80060
:101abc00c442a800cd62a8004b0607000088230092
:101acc00110020008d090700cc82a80076030700c6
:101adc00008823001100200088090700c442a800d8
:101aec00c462a900cd02a900cd22a900cd42a90053
:101afc00c482a9006608070089000700520207008b
:101b0c00bd040700004f78009e80fb0000022000ff
:101b1c00008060000000e0000200320010c0b30042
:101b2c0003e8b7001e80fb00700060000000e000be
:101b3c0003003200300020002040880042020700e1
:101b4c0003c8bf000004e000030032002c030700b0
:101b5c002041800030408800cc82a800a1cbb3008b
:101b6c00c0cdb30089030700cd62a80001cdb3003e
:101b7c00a0cdb30043060700cc82a800cd62a8001c
:101b8c00c442a80000902000d10320005b0907008c
:101b9c00c442a90000902000d1032000570907007f
:101bac000000eb003042880010002000404288000a
:101bbc002000200050428800000120006042880074
:101bcc001001200070428800200120008042880013
:101bdc00000220009042880010022000a0428800e1
:101bec0020022000b042880000032000c042880080
:101bfc0000042000d042880000052000e04288004c
:101c0c0000062000f04288001006200000438800e7
:101c1c002006200010438800f00f2000204388008d
:101c2c00ea02070002c8bf000004e0000100320015
:101c3c000268ef0001c8bf000004e00001003200a0
:101c4c000168ef0000c8bf000004e0000200320091
:101c5c000068ef000e0807000368ef00a6ff3700ce
:101c6c000200fa00004f7800c482a80000c42900ca
:101c7c0001002000210907001e80fb00401988008c
:101c8c002023a80080022000010020001b0907006f
:101c9c002023a900000000000019800061006000f2
:101cac000000e000fcff320000c42900010020000d
:101cbc0012090700c482a900001880000080fa00f5
:101ccc00000006000000fa000107070000d4200005
:101cdc003100200009090700fa03070000d4200096
:101cec0031002000050907000040fe000080fa00ca
:101cfc00000006000000fa00fb06070000d42000dc
:101d0c0031002000fd0807000204070000d4200069
:101d1c0031002000f90807000080fa0000000600de
:101d2c000200fa000000eb00000f780002c8bf00b0
:101d3c000004e0000500320010002000000f7800c5
:101d4c00ecff07000268ef000f00370001c8bf006e
:101d5c000004e0000500320020002000000f780095
:101d6c00e4ff07000168ef000700370000c8bf0060
:101d7c000004e0000400320030002000000f780066
:101d8c00dcff07000068ef001e007800e10f500038
:101d9c0054003a002381200002842000a1832000fb
:101dac004083200058060700a04180003042880084
:101dbc00b041800040428800c04180005042880001
:101dcc00d041800060428800e04180007042880071
:101ddc00f0418000804288000042800090428800e0
:101dec0010428000a042880020428000b04288004f
:101dfc0090408000c042880010c0b30098ff0700dc
:101e0c00e30007000040eb0095ff0700a20007006d
:101e1c00a040880010c0b30091ff0700dc00070051
:101e2c00b0408800f0c0b3008dff07002d02070002
:101e3c00c0408800c040800048020700f040880085
:101e4c00e0c0b30086ff07002602070000418800af
:101e5c00004180004102070000418800d0c0b3005f
:101e6c007fff07001f020700e0408800e040800071
:101e7c003a02070010418800a0408000d042880040
:101e8c00b0408000e0428800c0408000f0428800f2
:101e9c00d040800000438800e04080001043880060
:101eac00f0408000f0428800004180000043880030
:101ebc001041800010438800510207003040800020
:101ecc00e10f500001003a00400207003040800052
:101edc00e20f500001003a005d0207000368ef00ba
:101eec006b0037001e007800e20f50001a003a0019
:101efc002381200002842000a18320004083200045
:101f0c0001060700a041800030428800b0418000eb
:101f1c0040428800c041800050428800d04180007f
:101f2c0060428800e041800070428800f0418000ef
:101f3c00804288000042800090428800104280005d
:101f4c00a042880020428000b0428800904080006f
:101f5c00c04288004e0037001e007800e30f50008e
:101f6c004b003a002381200002842000a183200032
:101f7c0040832000e4050700a04180003042880027
:101f8c00b041800040428800c0418000504288002f
:101f9c00d041800060428800e0418000704288009f
:101fac00f04180008042880000428000904288000e
:101fbc0010428000a042880020428000b04288007d
:101fcc0090408000c042880010c0b30024ff07007e
:101fdc006f0007000040eb0021ff07002e000700f8
:101fec00a040880010c0b3001dff07006800070068
:101ffc00b0408800f0c0b30019ff0700b90107001a
:10200c00c0408800c0408000d4010700f040880028
:10201c00e0c0b30012ff0700b201070000418800c6
:10202c0000418000cd01070000418800d0c0b30002
:10203c000bff0700ab010700e0408800e040800088
:10204c00c601070010418800a0408000d0428800e3
:10205c00b0408000e0428800c0408000f042880020
:10206c00d040800000438800e0408000104388008e
:10207c00f0408000f042880000418000004388005e
:10208c001041800010438800d001070000070700b2
:10209c000080fa00000006001200fa00889fbe00c3
:1020ac00000f98000e089000cf80de00d9f90700d1
:1020bc0002002c00f3472400defa07000200200087
:1020cc0003022400bafb0700008fbe0002002400ac
:1020dc00c36124001e00be00b5fb07000004be0057
:1020ec001e01be000000200001022400e3f90700dd
:1020fc000001be000800be00cefa070020079800c1
:10210c003107980002002400c36124002e009000c7
:10211c00be009000c7fa0700b5fd0700c2b22b0045
:10212c0043982300a2fb0700f2f02c00b3b5230068
:10213c00dbf907000001be000000200001f82300bd
:10214c00bcfa070040079800510798003233290069
:10215c00833824004e009000de009000c7f9070081
:10216c00600798007107980002002000832c24005f
:10217c006e009000fe0090008dfb070084f90700b4
:10218c00000078004f04be000080fa00000006003a
:10219c000600fa00881f7800200798002e00900097
:1021ac00cf80de009bf9070002002c00f3472400cf
:1021bc00a0fa070002002000030224007cfb0700a9
:1021cc000001be00b6f90700008fbe0018c0b300b6
:1021dc0062662600630824001e00be006af9070030
:1021ec000000e00001003d000044eb000804e000aa
:1021fc0002003200400620009000370018c0b300e7
:10220c0002002000030824001e00be005ef9070037
:10221c000000e00001003d000044eb000804e00079
:10222c000e00320002002000030824001e00be0035
:10223c0092f9070002cc2c00c3e423007dfa0700be
:10224c0002002000031a240059fb070050f9070074
:10225c00000078000005b0007800370018c0b3000b
:10226c0062662600630724001e00be0046f90700c4
:10227c000000e00001003d000044eb000804e00019
:10228c000e00320062662600630724001e00be00aa
:10229c007af90700029a290093e1230065fa0700f6
:1022ac0002002000031a240041fb070038f9070044
:1022bc0000007800c003b0006000370018c0b30005
:1022cc0002002000030724001e00be002ef90700a8
:1022dc000000e00001003d000044eb000804e000b9
:1022ec000e00320002002000030724001e00be0076
:1022fc0062f9070002cc2c00c3dc23004dfa070066
:10230c0002002000031a240029fb070020f9070013
:10231c00000078008002b0004800370018c0b300fd
:10232c0062662600630624001e00be0016f9070034
:10233c000000e00001003d000044eb000804e00058
:10234c000e00320062662600630624001e00be00ea
:10235c004af90700029a290093e1230035fa070095
:10236c0002002000031a240011fb070008f90700e3
:10237c0000007800740040003000370018c0b30033
:10238c0002002000030624001e00be00fef8070019
:10239c000000e00001003d000044eb000804e000f8
:1023ac000e00320002002000030624001e00be00b6
:1023bc0032f9070002cc2c00c3dc23001dfa070005
:1023cc000200200003122400f9fa0700f0f80700bd
:1023dc00000078006a0040001800370018c0b300f5
:1023ec00d2cc2c00c30424001e00be00e6f807006b
:1023fc000000e00001003d000044eb000804e00098
:10240c000d003200d2cc2c00c30424001e00be00f0
:10241c001af907008299290093e9230005fa0700ad
:10242c000200200003122400e1fa0700d8f807008c
:10243c0000007800010037000000eb004f0478002a
:10244c000080fa00000006000200fa000000eb0019
:10245c00000f78000000eb00204388002040800033
:10246c00e10f500025003a001f00370020168000b5
:10247c004200de00614060000004a2006140600088
:10248c000080fb00610060004200dd00211680002e
:10249c000120a1000100700020168800009020008f
:1024ac00d103200015070700201680004200de0033
:1024bc00614060000004a200614060000080fb00ed
:1024cc00610060004200dd00211680000120a100a7
:1024dc00010070002016880000902000d10320001d
:1024ec00060707001e0fe8001e007800e90f5000d9
:1024fc00deff3400100020002043880020408000c4
:10250c00e20f500025003a001f0037002016800013
:10251c004200de00614060000004a20061406000e7
:10252c000080fb00610060004200dd00211680008d
:10253c000120a1000100700020168800002021005d
:10254c00a1072000ed060700201680004200de00e7
:10255c00614060000004a200614060000080fb004c
:10256c00610060004200dd00211680000120a10006
:10257c00010070002016880000202100a107200017
:10258c00de0607001e0fe8001e007800e90f500061
:10259c00deff340020002000204388002040800013
:1025ac00e30f500025003a001f0037002016800072
:1025bc004200de00614060000004a2006140600047
:1025cc000080fb00610060004200dd0021168000ed
:1025dc000120a100010070002016880000b021002d
:1025ec00710b2000c5060700201680004200de009b
:1025fc00614060000004a200614060000080fb00ac
:10260c00610060004200dd00211680000120a10065
:10261c00010070002016880000b02100710b200012
:10262c00b60607001e0fe8001e007800e90f5000e8
:10263c00deff340030002000204388002040800062
:10264c00e40f500025003a001f00370020168000d0
:10265c004200de00614060000004a20061406000a6
:10266c000080fb00610060004200dd00211680004c
:10267c000120a100010070002016880000402200fb
:10268c00410f20009d060700201680004200de004e
:10269c00614060000004a200614060000080fb000b
:1026ac00610060004200dd00211680000120a100c5
:1026bc00010070002016880000402200410f20000d
:1026cc008e0607001e0fe8001e007800e90f500070
:1026dc00deff340040002000204388000080fa0018
:1026ec00000006000a00fa00400798004e00900017
:1026fc008000eb004af8070002002c00f34724008e
:10270c004cf907000200200003fa230028fa070006
:10271c00008fbe0002002000030824001e00be0033
:10272c0023fa070002002000030a240041f90700e5
:10273c00200798003107980002402200439724009c
:10274c002e009000be00900019fa070010f8070048
:10275c00000078000080fa00000006000e00fa006d
:10276c00600798006e009000cf80de0029f807000b
:10277c0002402200439724002ef90700008fbe0070
:10278c00723b2400a32325001e00be0008fa07009c
:10279c00200798003107980072712b00138d2300cd
:1027ac002e009000be00900001fa07004007980030
:1027bc00510798004e009000de009000f4f70700df
:1027cc00000078000080fa00000006000000fa000b
:1027dc00fe00070001c2b30060842000a4000700c3
:1027ec0000000000e40207000004a2000004e00066
:1027fc00fcff3a000e0107000080fa000000060002
:10280c000000fa00ea0207000004e0000e003200ab
:10281c002041800021c0b300c3000700204180008c
:10282c00e10f50000300320020418000e20f500005
:10283c0005003a0010c0b30003e8b7002041800047
:10284c00304088002428ef000080fa0000000600c9
:10285c000000fa0026c8bf000080fb008000e800e2
:10286c005000200000017800110009008200d800ff
:10287c008000fd000040780026e8b70026c8bf00a5
:10288c000080fb008000400040d428000080400005
:10289c0010007800100888000021ef008460a90067
:1028ac000080fa00000006000000fa0081c0b300ae
:1028bc000040eb00350007008040eb0010c0b30077
:1028cc003200070011c0b30020c0b3002f00070076
:1028dc0031c0b30030c0b3002c0007008040eb00c7
:1028ec0040c0b3002900070021c0b30050c0b300a2
:1028fc002600070071c0b30060c0b30023000700be
:10290c0001c7b30070c0b3002000070001c2b300c0
:10291c0010c1b3001d0007008040eb00d0c1b30014
:10292c001a0007008040eb00c0c1b300170007007d
:10293c00a1c0b3000040eb001400070050c0b3006e
:10294c0005020700e0c1b3000b02070010c0b30082
:10295c0010020700100e2f00018f2e00820e200097
:10296c00030020001c020700140e2f00058f2e0000
:10297c00860e20000700200010c0b300480207009c
:10298c00ab0007000080fa00000006000200fa000d
:10299c00004f780011479800cd82a900cc82a80086
:1029ac00cd62a90000c4290001002000d305070056
:1029bc001e4078000054a0000080fb006304070058
:1029cc000000000000128000610060000000e000c8
:1029dc00fcff32001e4090000080fb005b040700ef
:1029ec000000000000128000610060000000e000a8
:1029fc00fcff3200cd62a8000080fa000000060047
:102a0c000400fa0020479800cd82a900cc82a800cf
:102a1c00cd62a90000c4290001002000b705070001
:102a2c002e4090000080fb004804070000000000ce
:102a3c0000128000610060000000e000fcff32002a
:102a4c00f00f200041040700004f78000000000048
:102a5c0000128000610060000000e000fcff32000a
:102a6c00cd62a8001e4078000080fa00000006002d
:102a7c000600fa001007980041479800c442a800cd
:102a8c0001c7b30070c0b300c0ff07004f000700c0
:102a9c00fe000700cd62a900000a20002b040700ed
:102aac000000000000128000610060000000e000e7
:102abc00fcff32000040eb00004f78000c003700a8
:102acc001e80fb00000040009e0090000080400033
:102adc00100078001d0407000000000000128000a8
:102aec00610060000000e000fcff32001e4fe800b7
:102afc004e4090009e40780080cf5000f0ff39008f
:102b0c00cd62a800d900070000c4290001002000f4
:102b1c007a050700dd00070045000700c442a90044
:102b2c000080fa00000006000600fa00881f7800fa
:102b3c001007980041479800c442a8003c000700c9
:102b4c00de000700cd62a90010062000ff0307007d
:102b5c000000000000128000610060000000e00036
:102b6c00fcff32000040eb00004f78000d003700f6
:102b7c001e80fb00000040009e009000008440007e
:102b8c00f00f2000f1030700000c7800000000009b
:102b9c0000128000610060000000e000fcff3200c9
:102bac001e4fe8004e4090009e40780080cf5000b1
:102bbc00efff3900cd62a800c0000700c442a90095
:102bcc004f0478000080fa00000006000600fa00ae
:102bdc000040eb008aff07000080fb008000eb0048
:102bec00008fbe001e00be004809dd004800de005c
:102bfc0000007100c808de0040479800ce409000ed
:102c0c00e0cfb30000c0700040479800ce40900069
:102c1c000040eb005dff0700cd82a800c003200040
:102c2c0001002000350507000080fa0000000600b6
:102c3c000600fa000040eb0071ff07000080fb006b
:102c4c008000eb00008fbe001e00be004809dd00b6
:102c5c004800de0000007100c808de004047980004
:102c6c004e4090000004a00040479800ce409000d9
:102c7c000040eb0045ff07008020200001002000f1
:102c8c001e0507000040eb005dff07005047980051
:102c9c005e4090000004a00050479800de40900079
:102cac000040eb0039ff0700cd82a8000080fa003d
:102cbc00000006000000fa00cd82a9000080fa0096
:102ccc00000006000600fa000040eb004cff070075
:102cdc000080fb008000eb00008fbe001e00be00d9
:102cec004809dd004800de0000007100c808de0065
:102cfc00404798004e4090000014a10040479800b7
:102d0c00ce4090000040eb0020ff07000080fa004e
:102d1c00000006000600fa000040eb0038ff070038
:102d2c000080fb008000eb00008fbe001e00be0088
:102d3c004809dd004800de0000007100c808de0014
:102d4c00404798004e4090000014a0004047980067
:102d5c00ce4090000040eb000cff070000772100f4
:102d6c0001002000e5040700b1ff07000080fa0015
:102d7c00000006000600fa00100798004147980072
:102d8c00cd62a900000320007003070000000000c2
:102d9c0000128000610060000000e000fcff3200c7
:102dac000040eb00004f78000c0037001e80fb0049
:102dbc009e00900000804000104078000080fb00d6
:102dcc006203070000000000001280006100600038
:102ddc000000e000fcff32001e4fe8004e40900067
:102dec009e40780080cf5000f0ff3900cd62a800e3
:102dfc000080fa00000006000000fa0070c0b3006a
:102e0c00fffe07000080fa00000006000000fa0038
:102e1c00cd62a900f00f20004c0307000000000059
:102e2c0000128000610060000000e000fcff320036
:102e3c00cd62a8000080fa00000006000000fa0035
:102e4c00cd62a900300e20004003070000000000f6
:102e5c0000128000610060000000e000fcff320006
:102e6c00cd62a9000080fa00000006000000fa0004
:102e7c00cd82a80000fa2000010020009f0407006a
:102e8c00cd82a9000080fa00000006000000fa00c4
:102e9c00cd62a900100e20002c03070000000000da
:102eac0000128000610060000000e000fcff3200b6
:102ebc00cd62a8000080fa00000006000000fa00b5
:102ecc00cd62a900200e20002003070000000000a6
:102edc0000128000610060000000e000fcff320086
:102eec00cd62a8000080fa00000006000200fa0083
:102efc0070c0b300c2fe0700004f780000c7b300db
:102f0c001e4070008040780070c0b3009ffe070028
:102f1c000080fa00000006000200fa000040eb00fe
:102f2c00004f7800cd62a9000006200007030700bf
:102f3c00004f78000000000000128000610060006b
:102f4c000000e000fcff3200cd62a8001e407800bb
:102f5c000080fa00000006000600fa00004f78001e
:102f6c001107980042479800cd62a900b0cab3007f
:102f7c001e4070000080fb00f402070000000000ff
:102f8c0000128000610060000000e000fcff3200d5
:102f9c000c0037001e009000104078000080fb00f1
:102fac009e0090008100e80011079800e7020700de
:102fbc000000000000128000610060000000e000d2
:102fcc00fcff32004e4090000080fb000000ea0045
:102fdc004f00de0000407800ce4090008140e900b8
:102fec00414798000004e000eaff3a00cd62a800d7
:102ffc000080fa00000006000400fa00000f7800c0
:10300c0021479800cd62a900000b2000cf020700d9
:10301c000000000000128000610060000000e00071
:10302c00fcff32000a0037001e00780010407800c8
:10303c000080fb001e0fe800c40207000000000027
:10304c0000128000610060000000e000fcff320014
:10305c002e4090000080fb000000ea004f00de00d4
:10306c0000407800ae4090008140e9002147980074
:10307c000004e000ecff3a00cd62a8000080fa00ea
:10308c00000006000200fa00004f7800d0c7b30021
:10309c009e40780080cf500002003600d0c7b300ad
:1030ac00004f78009e40780050c0b30037fe0700f8
:1030bc000080fa00000006000400fa002047980087
:1030cc0060c0b3004efe0700004f780070cdb30017
:1030dc001e4f60002e409000e64f400001003a0069
:1030ec001e54a0009e40780060c0b30027fe07006d
:1030fc000080fa00000006000400fa002047980047
:10310c0060c0b3003efe0700004f780090cfb300c4
:10311c001e4f60002e4090000080fb00000040001d
:10312c00804078001e40780000c07000004f78008e
:10313c009e40780060c0b30014fe07000080fa00c7
:10314c00000006000000fa0090c0b3002cfe07003f
:10315c000080fa00000006000200fa00004f780020
:10316c001ec0e9008040780010c0b30007fe0700c5
:10317c000080fa00000006000200fa00004f780000
:10318c009e40780010c1b30000fe07000080fa00da
:10319c00000006000400fa00204798000040eb00f5
:1031ac0017fe0700004f78002e4090000080fb00b7
:1031bc004200dd00804078001e40780000c07000a6
:1031cc00004f78009e4078000040eb00effd0700b8
:1031dc000080fa00000006000a00fa00889fbe007a
:1031ec008a9fbe008c1f780010079800210798005a
:1031fc003207980043079800cd62a900a002200076
:10320c00520207000040eb00004f78001b00370013
:10321c001e80fb004302dd001e009000ae009000fb
:10322c003e019000ce0190000205be000004be00dd
:10323c00040678000c06e900050033008b05d1006c
:10324c000a85d3008984d3000884d300f9ff3700a2
:10325c000802be000a03be00f00f2000010020008f
:10326c006011b800000062008180620002016300fe
:10327c0083816300350207001e4fe8001e40780072
:10328c00e44f5000e2ff3600cd62a8004f067800f4
:10329c004f05be004f04be000080fa00000006007f
:1032ac000c00fa00889fbe008a9fbe008c1f78001d
:1032bc002047980024079800350798004607980087
:1032cc0057079800cd62a9002e4090000080fb00ab
:1032dc006a0040000050a0001c0207000040eb00f8
:1032ec00004f78001b0037001e80fb004302dd00fe
:1032fc002e009000be0090004e019000de01900068
:10330c000205be000004be00040678000c06e900ad
:10331c00050033008b05d1000a85d3008984d300c6
:10332c000884d300f9ff37000802be000a03be0070
:10333c00f00f2000010020006011b80000006200b6
:10334c00818062000201630083816300ff0107003a
:10335c001e4fe8001e407800e44f5000e2ff36009c
:10336c00cd62a8004f0678004f05be004f04be008a
:10337c000080fa00000006000200fa0070c0b300e2
:10338c009ffd0700004f78009e80fb00000220008c
:10339c000080600000f0a7000000ea000000ea00d6
:1033ac004f00de00004078000080fa0000000600ac
:1033bc000200fa0070c0b30091fd0700004f7800c6
:1033cc009e80fb00000420000080600000f0a7003d
:1033dc000000ea000000ea004f00de000040780028
:1033ec000080fa00000006000000fa0011c0b300d3
:1033fc00b0c6b300230007008040eb00c0c6b3008a
:10340c002000070021c1b30070c3b3001d000700ea
:10341c0011c0b30080c3b3001a00070001c1b30090
:10342c00c0c1b3001700070081c0b300b0c1b30026
:10343c001400070001c2b300a0c6b30011000700be
:10344c00d1c0b30040c2b3000e000700c1c8b30026
:10345c0050c2b3000b000700a1c0b30060c2b300a0
:10346c000800070061c1b30060c2b300050007008b
:10347c0011c8b30070c2b300020007000080fa004c
:10348c00000006000200fa00004f78001147980077
:10349c00cd62a800cc82a90000c429000100200044
:1034ac00160307001e80fb00a80107001e409000b9
:1034bc000080fb00a5010700000000000012800046
:1034cc00610060000000e000fcff3200cc82a8002c
:1034dc000080fa00000006000400fa002047980063
:1034ec00cd62a800cc82a90000c4290001002000f4
:1034fc00020307002e4090000074a0000080fb0027
:10350c0092010700000000000012800061006000c2
:10351c000000e000fcff3200f00f20008b010700e0
:10352c00004f780000000000001280006100600075
:10353c000000e000fcff3200cc82a8001e407800a6
:10354c000080fa00000006000400fa00000f78006a
:10355c001107980010c4b300dfff07009e0078002d
:10356c008048780020c4b300dbff07009e00900069
:10357c00804878000080fa00000006000c00fa0079
:10358c00000f780011079800220798003307980065
:10359c004407980055079800b0c3b300ceff07004e
:1035ac009e00780080487800c0c3b300caff0700b3
:1035bc009e00900080487800d0c3b300c6ff07007f
:1035cc00ae00900080487800e0c3b300c2ff070053
:1035dc00be00900080487800f0c3b300beff070027
:1035ec00ce0090008048780000c4b300baff0700fa
:1035fc00de009000804878000080fa000000060091
:10360c000c00fa00000f78001107980022079800b0
:10361c0033079800440798005507980030c4b3004e
:10362c00adff07009e0078008048780040c4b300ce
:10363c00a9ff07009e0090008048780050c4b3009a
:10364c00a5ff0700ae0090008048780060c4b3006e
:10365c00a1ff0700be0090008048780070c4b30042
:10366c009dff0700ce0090008048780080c4b30016
:10367c0099ff0700de009000804878000080fa0077
:10368c00000006000c00fa00000f780011079800eb
:10369c0022079800330798004407980055079800b4
:1036ac0040c0b3008cff07009e0078008048780073
:1036bc0030c0b30088ff07009e009000804878005f
:1036cc0060c0b30084ff0700ae0090008048780013
:1036dc0050c0b30080ff0700be0090008048780007
:1036ec0080c0b3007cff0700ce00900080487800bb
:1036fc0070c0b30078ff0700de00900080487800af
:10370c000080fa00000006002000fa00400f98002c
:10371c00510f9800620f9800730f9800cc82a9008b
:10372c00b00b2000401288000000eb00000f780066
:10373c000b003700000000000012800061006000e8
:10374c000000e000fcff3200401280008040780056
:10375c000e80e8001e004000014878001e0fe800b3
:10376c001e007800f40f5000f2ff3400cc82a80049
:10377c002e4090000080fb00c800dd003e40900011
:10378c000080fb00810070004e089000010878005a
:10379c004e0890000080e800ce4090008180fb0035
:1037ac004809dd00de4090008180fb0082807000c3
:1037bc00010878004e08900064004000ee40900034
:1037cc008180fb004809dd00fe4090008180fb00f9
:1037dc0082807000010878000e4890000080fb0089
:1037ec00c800dd001e4890000080fb0081007000c6
:1037fc007e089000010878002e4890000080fb00a5
:10380c00c800dd003e4890000080fb008100700085
:10381c005e089000010878005e0890000080e800c7
:10382c00ce4890008180fb004809dd00de48900006
:10383c008180fb0082807000010878005e08900097
:10384c0064004000ee4890008180fb004809dd00d8
:10385c00fe4890008180fb00828070000108780097
:10386c001e5090000080fb00c800dd000e50900040
:10387c000080fb00810070006e0890000108780049
:10388c006e0890000080e800be5090008180fb0024
:10389c004809dd00ae5090008180fb0082807000f2
:1038ac00010878006e08900064004000de50900023
:1038bc008180fb004809dd00ce5090008180fb0028
:1038cc0082807000010878000080fa000000060079
:1038dc000000fa0001c4b300b0c6b300e9fe070053
:1038ec000080fa00000006000000fa0011c0b300ce
:1038fc00b0c6b300e3fe07000080fa00000006002b
:10390c000200fa0050c7b300f3fe0700004f780026
:10391c0010c7b3009e40780080cf500002003200e8
:10392c0010c0b300010037000040eb000080fa002b
:10393c00000006000000fa0030032000101288007e
:10394c001000200020128800c000280000128800ff
:10395c000080fa00000006000400fa00000f780056
:10396c001107980000000000001280006200600047
:10397c000000e000fcff3a001e00780010407800c8
:10398c000080fb0040128800000000000112800043
:10399c0000022000008060000000e000fbff3a0005
:1039ac0040128000804078001e0090000148780092
:1039bc000080fa00000006001800fa00100f9800b2
:1039cc00210f9800320f98000000eb00000f7800d8
:1039dc000000eb00100798000000eb007007980047
:1039ec000000eb00000f980010002000600798000a
:1039fc001e0890000000e00005003a000000eb00fb
:103a0c00500798007000470020079800040037000a
:103a1c00ee009000510798009e0890002107980036
:103a2c003e0890000000e00005003a000000eb00aa
:103a3c00400798006e0047003007980005003700db
:103a4c00ee00900041079800be08900031079800e6
:103a5c000000000000128000620060000000e00026
:103a6c00fcff3a001d00370000128000620060006d
:103a7c000000e00009003a002e0090001040780091
:103a8c000080fb0040128800ae0090005e009000a9
:103a9c0000804000200798001e0fe80001128000f3
:103aac0000022000008060000000e0000b003a00e3
:103abc0040128000804078003e0090000148780061
:103acc00be0090004e00900000804000300798002f
:103adc001e0090000000e800100798002e089000cf
:103aec009e007800808f5000dfff390010003700f7
:103afc000112800000022000008060000000e00045
:103b0c000b003a0040128000804078003e0090008c
:103b1c0001487800be0090004e00900000804000ec
:103b2c00300798001e0090000000e8001007980075
:103b3c009e0090002e089000808f5000ecff390002
:103b4c001e0078000080fa00000006000400fa0055
:103b5c00204798000e80e8008e0078007eff07005a
:103b6c001e4078000080fa00000006000600fa00f3
:103b7c00000f780011079800220798002e01900082
:103b8c009e0090001e0078008bff07000080fa005a
:103b9c00000006000000fa00001280000080fa000d
:103bac00000006000000fa000021ef00005327007f
:103bbc001008880000002800200888007041800050
:103bcc000000e00002003a0000e32100280007009a
:103bdc008460a9009460a800608820008040eb00fd
:103bec00014878000080fa00000006000200fa008c
:103bfc00000f78009e007800110888006088200073
:103c0c008040eb00014878000080fa0000000600bc
:103c1c000000fa00100880000080fa000000060086
:103c2c000200fa00000f78009e007800010888005e
:103c3c00608820008040eb00014878000080fa008a
:103c4c00000006000000fa00000880000080fa0066
:103c5c00000006000000fa0010c0b30000e8b70036
:103c6c008460a900120007000080fa000000060022
:103c7c000200fa00000f78009460a9009e00780002
:103c8c00714188009460a8000080fa0000000600d2
:103c9c000000fa00608820008040eb0001487800aa
:103cac009460a80005e1a8000080fa00000006005e
:103cbc000000fa0005e1a9009460a9000080fa0058
:103ccc00000006000200fa0060882000104f780007
:103cdc001e4078000004e0000300320060882000e1
:103cec008040eb00014878001e4078000080fa000c
:103cfc00000006000000fa007088200010407800d8
:103d0c000080fb000080fa00000006000000fa00b2
:103d1c00708820008040eb00014878000080fa0099
:103d2c00000006000000fa000000280000198800be
:103d3c002223ef002423ef002823ef003023ef0091
:103d4c00e0ea2100050007000080fa0000000600f0
:103d5c000000fa000080fa00000006000200fa00e1
:103d6c00000f78001e007800804188000080fa0067
:103d7c00000006000000fa00210480000000220070
:103d8c00008060000000e0000600320080418000ee
:103d9c000000e000020032008041800000000100c1
:103dac0085a0a9000080fa00000006000000fa00bf
:103dbc002023a8000080fa00000006000000fa0092
:103dcc002023a9000080fa00000006000800fa0079
:103ddc0030079800101980004200de006f40600030
:103dec000080fb002007980000302000100798008e
:103dfc000000eb00000f78000b0037001e0078006d
:103e0c0000004000be009000008040009e0090002a
:103e1c0091007800010878001e0090000080e800f6
:103e2c00100798001e0fe8009e0078002e009000ee
:103e3c00808f5000f1ff36001e0078000080fa00e1
:103e4c00000006000000fa00400020002016880048
:103e5c00cc22ef003000200000168800c00e2e008f
:103e6c00401688006820ef006a20ef00c622ef00a1
:103e7c00ce22ef00c003210060198800113a8000a7
:103e8c00f00b200000816000600420007105200010
:103e9c002374200080497800814978008249780099
:103eac004135800000fe2f00008060000010a00053
:103ebc00403588000136800000fe2f000080600035
:103ecc000030a0000036880001348000f00f2e0076
:103edc0080806000003020000100700000348800f9
:103eec0001368000f00f2e008080600000702000f2
:103efc0001007000003688002136800000fe2f0083
:103f0c00008060009000b30020368800513680009d
:103f1c00f00f2e00808060000090200001007000e7
:103f2c0050368800103a8000000178000260a00032
:103f3c006004200071052000237420008049780063
:103f4c0081497800824978000080fa000000060060
:020000040000fa
:103f5c006608000020000000000000002c08000093
:103f6c000200000002000000ffff00003408000007
:103f7c0032000000000000000008000028000000d3
:103f8c0000000000280800000400000000000000f1
:103f9c008608000002000000000000002e0800004f
:103fac0002000000000000003008000002000000c9
:103fbc0000000000320800000200000000000000b9
:103fcc008808000002000000000000000000000053
:020000040000fa
:103fdc000000fa0000102300203a88004827ef0068
:103fec007027ef007227ef007427ef00720020009b
:103ffc0080072000a109200033742000804978003c
:10400c0081497800824978000001eb0060042000af
:10401c0071052000237420008049780081497800c4
:10402c00824978000080fa00000006000000fa00c7
:10403c002105800080ff2f00008060000000a000a0
:10404c00200588007105800080ff2f000080600033
:10405c000010a0007005880021058000f0ff2800ea
:10406c0080806000000023000100700020058800a3
:10407c000080fa00000006000000fa0010c0b30037
:10408c0002e8b7000080fa00000006000000fa0009
:10409c0010c0b30001e8b7000080fa000000060071
:1040ac000000fa008400a9008200a8009400a80077
:1040bc008680a9008220a9009680a8000080fa00c2
:1040cc00000006000200fa00000f78009e00780045
:1040dc00614188000000fe000080fa00000006002c
:1040ec000000fa006086200080077800e08720003e
:0c40fc00000188000080fa0000000600af
:020000040000fa
:10410800f03fb1000180b10006003500ee03090060
:1041180000000000403fb1000180b100fbff3d00fe
:104128001000b000203fb0000200350000800900f8
:08413800000000000000060079
:020000040000fa
:104140000000fa0042ff0700bbff0700a3ff0700c3
:10415000fbfd0700f6fe0700d4ff070094fe0700f2
:104160000080fa0000000600809fbe00ec8057002f
:104170003100780040418800110078002ae8b7003b
:084180004f00be000000060024
:020000040000fa
:020000040001f9
:0457f8009f7f00008f
:020000040000fa
:020000040001f9
:0457fc007f3d0000ed
:00000001FF
