:020000040000fa
:080000000002040000000000f2
:020000040000fa
:04000800d20300001f
:020000040000fa
:04000c000c030000e1
:020000040000fa
:040010004e0300009b
:020000040000fa
:040014002c030000b9
:020000040000fa
:040018006e03000073
:020000040000fa
:04001c00d20300000b
:020000040000fa
:04002000d203000007
:020000040000fa
:04002400d203000003
:020000040000fa
:04002800d002000002
:020000040000fa
:04002c00d2030000fb
:020000040000fa
:04003000d2030000f7
:020000040000fa
:040034008e03000037
:020000040000fa
:04003800d2030000ef
:020000040000fa
:04003c00d2030000eb
:020000040000fa
:04004000d2030000e7
:020000040000fa
:04004400d2030000e3
:020000040000fa
:04004800d2030000df
:020000040000fa
:04004c00d2030000db
:020000040000fa
:04005000d2030000d7
:020000040000fa
:04005400d2030000d3
:020000040000fa
:04005800d2030000cf
:020000040000fa
:04005c00d2030000cb
:020000040000fa
:04006000d2030000c7
:020000040000fa
:04006400d2030000c3
:020000040000fa
:04006800d2030000bf
:020000040000fa
:04006c00d2030000bb
:020000040000fa
:04007000d2030000b7
:020000040000fa
:04007400d2030000b3
:020000040000fa
:04007800ee02000094
:020000040000fa
:04007c00d2030000ab
:020000040000fa
:04008000d2030000a7
:020000040000fa
:04008400d2030000a3
:020000040000fa
:04008800d20300009f
:020000040000fa
:04008c00d20300009b
:020000040000fa
:04009000d203000097
:020000040000fa
:04009400d203000093
:020000040000fa
:04009800d20300008f
:020000040000fa
:04009c00d20300008b
:020000040000fa
:0400a000d203000087
:020000040000fa
:0400a400d203000083
:020000040000fa
:0400a800d20300007f
:020000040000fa
:0400ac00d20300007b
:020000040000fa
:0400b000d203000077
:020000040000fa
:0400b400d203000073
:020000040000fa
:0400b800d20300006f
:020000040000fa
:0400bc00d20300006b
:020000040000fa
:0400c000d203000067
:020000040000fa
:0400c400d203000063
:020000040000fa
:0400c800d20300005f
:020000040000fa
:0400cc00d20300005b
:020000040000fa
:0400d000d203000057
:020000040000fa
:0400d400d203000053
:020000040000fa
:0400d800d20300004f
:020000040000fa
:0400dc00d20300004b
:020000040000fa
:0400e000d203000047
:020000040000fa
:0400e400d203000043
:020000040000fa
:0400e800d20300003f
:020000040000fa
:0400ec00d20300003b
:020000040000fa
:0400f000d203000037
:020000040000fa
:0400f400d203000033
:020000040000fa
:0400f800d20300002f
:020000040000fa
:0400fc00d20300002b
:020000040000fa
:04010000d203000026
:020000040000fa
:04010400d203000022
:020000040000fa
:04010800d20300001e
:020000040000fa
:04010c00d20300001a
:020000040000fa
:04011000d203000016
:020000040000fa
:04011400d203000012
:020000040000fa
:04011800d20300000e
:020000040000fa
:04011c00d20300000a
:020000040000fa
:04012000d203000006
:020000040000fa
:04012400d203000002
:020000040000fa
:04012800d2030000fe
:020000040000fa
:04012c00d2030000fa
:020000040000fa
:04013000d2030000f6
:020000040000fa
:04013400d2030000f2
:020000040000fa
:04013800d2030000ee
:020000040000fa
:04013c00d2030000ea
:020000040000fa
:04014000d2030000e6
:020000040000fa
:04014400d2030000e2
:020000040000fa
:04014800d2030000de
:020000040000fa
:04020800d20300001d
:020000040000fa
:04020c000c030000df
:020000040000fa
:040210004e03000099
:020000040000fa
:040214002c030000b7
:020000040000fa
:040218006e03000071
:020000040000fa
:04021c00d203000009
:020000040000fa
:04022000d203000005
:020000040000fa
:04022400d203000001
:020000040000fa
:04022800d002000000
:020000040000fa
:04022c00d2030000f9
:020000040000fa
:04023000d2030000f5
:020000040000fa
:040234008e03000035
:020000040000fa
:04023800d2030000ed
:020000040000fa
:04023c00d2030000e9
:020000040000fa
:04024000d2030000e5
:020000040000fa
:04024400d2030000e1
:020000040000fa
:04024800d2030000dd
:020000040000fa
:04024c00d2030000d9
:020000040000fa
:04025000d2030000d5
:020000040000fa
:04025400d2030000d1
:020000040000fa
:04025800d2030000cd
:020000040000fa
:04025c00d2030000c9
:020000040000fa
:04026000d2030000c5
:020000040000fa
:04026400d2030000c1
:020000040000fa
:04026800d2030000bd
:020000040000fa
:04026c00d2030000b9
:020000040000fa
:04027000d2030000b5
:020000040000fa
:04027400d2030000b1
:020000040000fa
:04027800ee02000092
:020000040000fa
:04027c00d2030000a9
:020000040000fa
:04028000d2030000a5
:020000040000fa
:04028400d2030000a1
:020000040000fa
:04028800d20300009d
:020000040000fa
:04028c00d203000099
:020000040000fa
:04029000d203000095
:020000040000fa
:04029400d203000091
:020000040000fa
:04029800d20300008d
:020000040000fa
:04029c00d203000089
:020000040000fa
:0402a000d203000085
:020000040000fa
:0402a400d203000081
:020000040000fa
:0402a800d20300007d
:020000040000fa
:0402ac00d203000079
:020000040000fa
:0402b000d203000075
:020000040000fa
:0402b400d203000071
:020000040000fa
:0402b800d20300006d
:020000040000fa
:0402bc00d203000069
:020000040000fa
:0402c000d203000065
:020000040000fa
:0402c400d203000061
:020000040000fa
:0402c800d20300005d
:020000040000fa
:0402cc00d203000059
:020000040000fa
:0402d000d203000055
:020000040000fa
:0402d400d203000051
:020000040000fa
:0402d800d20300004d
:020000040000fa
:0402dc00d203000049
:020000040000fa
:0402e000d203000045
:020000040000fa
:0402e400d203000041
:020000040000fa
:0402e800d20300003d
:020000040000fa
:0402ec00d203000039
:020000040000fa
:0402f000d203000035
:020000040000fa
:0402f400d203000031
:020000040000fa
:0402f800d20300002d
:020000040000fa
:0402fc00d203000029
:020000040000fa
:04030000d203000024
:020000040000fa
:04030400d203000020
:020000040000fa
:04030800d20300001c
:020000040000fa
:04030c00d203000018
:020000040000fa
:04031000d203000014
:020000040000fa
:04031400d203000010
:020000040000fa
:04031800d20300000c
:020000040000fa
:04031c00d203000008
:020000040000fa
:04032000d203000004
:020000040000fa
:04032400d203000000
:020000040000fa
:04032800d2030000fc
:020000040000fa
:04032c00d2030000f8
:020000040000fa
:04033000d2030000f4
:020000040000fa
:04033400d2030000f0
:020000040000fa
:04033800d2030000ec
:020000040000fa
:04033c00d2030000e8
:020000040000fa
:04034000d2030000e4
:020000040000fa
:04034400d2030000e0
:020000040000fa
:04034800d2030000dc
:020000040000fa
:10040000cf8520000e7f22000e0188000000000032
:10041000000020000000e000020032000001200087
:100420002002880014000700e00007000000e00040
:1004300003003a0080a121000100200002003700e3
:100440000000200001002000810f70000100320038
:1004500014000700000020000000e000020032004d
:100460000000020000000000600d0200000000001b
:100470000040da000000fe004440a9000000200017
:100480000000e0000300320000002000a00188000e
:100490004440a800000006008a1f78008b1f7800e7
:1004a0000000060091018800800478000000eb0045
:1004b0001a003700e284440032a0b4009905ba0063
:1004c000e284440032a0b4009906ba00e2844400f9
:1004d00032a0b4000006eb00476fde00fd07b2005b
:1004e000636ce10003003a00ebff07000000eb0043
:1004f0000a003700606ce10004003a00005deb0088
:100500008b05e900fdff3e00040037006168e10053
:10051000010032000086eb000b00070019c7ba008b
:100520001905ba000e04e00003003a000a00e000da
:10053000e0ff3a0000000600fe07b2009e018800be
:100540008a047800f5ff3700395dba008b05e900b1
:100550000c003200295dba008b05e900080032006a
:100560000c00e00003003a00e284440032a0b40032
:10057000f5ff370019ddba008b05e900faff3a00f4
:100580008904e800e184440032a0b40000000600c1
:10059000000000000000000000000000000000005b
:1005a0003600f800809fbe00829fbe00849fbe0080
:1005b000869fbe000000fa006e0b07008400a900b1
:1005c0000080fa004f03be004f02be004f01be0084
:1005d0004f00be003600f900004006003600f8006b
:1005e000809fbe00829fbe00849fbe00869fbe008b
:1005f0000000fa00790b07008680a9000080fa004d
:100600004f03be004f02be004f01be004f00be00b0
:100610003600f900004006003600f800809fbe005a
:10062000829fbe00849fbe00869fbe000000fa002d
:100630008020a9000000eb00d50b07000080fa0025
:100640004f03be004f02be004f01be004f00be0070
:100650003600f900004006003600f800809fbe001a
:10066000829fbe00849fbe00869fbe000000fa00ed
:10067000cc0b07008040a90010002000c40b07002d
:100680000080fa004f03be004f02be004f01be00c3
:100690004f00be003600f900004006003600f800aa
:1006a000809fbe00829fbe00849fbe00869fbe00ca
:1006b0000000fa008060a90020002000b40b0700b1
:1006c0000080fa004f03be004f02be004f01be0083
:1006d0004f00be003600f900004006003600f8006a
:1006e000809fbe00829fbe00849fbe00869fbe008a
:1006f0000000fa008080a90030002000a40b070051
:100700000080fa004f03be004f02be004f01be0042
:100710004f00be003600f900004006003600f80029
:10072000809fbe00829fbe00849fbe00869fbe0049
:100730000000fa00f04080000000e800f04088006f
:10074000f0408000ee0f500006003600e0408000d0
:100750000000e00002003200e040800000000100e4
:100760001e28ef0090852000104078008040e800af
:1007700090852000014878008085200011c0b300da
:10078000014878008460a9000080fa004f03be0091
:100790004f02be004f01be004f00be003600f90000
:1007a000004006000040da000000fe0000000500e6
:1007b000f4ff2f008d0337000001be002100070069
:1007c0000470a70003f0a1006509b1001600320013
:1007d0000d0035006828e10006003500f0ff2f000d
:1007e000f1ff27000300e00013003b000100280098
:1007f0000000050000004000818048008502e900fb
:10080000fcff3a0008003700f88f420002003c006d
:100810008000eb00000005008100d1000080d300c3
:100820008502e800fcff3a000300e00002003b0004
:1008300060001000e0801800000006006011b800a1
:1008400085033700c70ade00f107b200f50fb200da
:1008500008003200e1cf4200020032000170a00027
:1008600024000500810f700001003200040805001b
:1008700044000500810f700002003a0014000500da
:100880008502e9000000400081c04800fcff3b00f9
:100890000170a0002400050007f82700078361000d
:1008a0000638e10004003a00f70720008783610062
:1008b0008703710001003a0003f0a200889fbe0088
:1008c0008a9fbe008c9fbe00470ade000480a10004
:1008d000c71ade000580a100070028000785600018
:1008e00087856100f70f20000720e1009e0032009d
:1008f0000728e1009c003200010678000400e000b7
:10090000b4003200f7072000878060000170a0006b
:100910000500e000c0003200f70720008781610079
:100920000370a000050652000f003a000b50e100d2
:100930000b0032000308e10002003a000200e1006f
:100940007e0032000204500083845800040031000d
:100950000001fd008101fd008402fd008a05fd000b
:100960006044b800210037000520e10005003d008b
:100970000001fd008101fd008402fd008a05fd00eb
:10098000050652007a60e100050035000170a10003
:100990004722dd00848070008a8070006300370089
:1009a0006044b800ef02660007ff2f0007066600ec
:1009b0000500e00006003400f08312008714dd001b
:1009c0000511de00071bdd00060171008519de0040
:1009d0007060e100050035000904780082047800a9
:1009e000030178008001eb00700656000b50e10017
:1009f00003003a00020040008380480004003700f2
:100a000060041400e0841c00020058008380580039
:100a10000188a300060032008100d1000080d300cd
:100a20008984d3000884d3000402e800270037003b
:100a30000178a30025003a000100e0000300320025
:100a40008186cf00698656000a0037008c0020009e
:100a50000000e00004003a000900780088047800f3
:100a60000004eb00700252008086cf000d064600a5
:100a70000c06e9007060e100060035008000780097
:100a800009007800880478000004eb007006560026
:100a9000700252000c00e0000c0034008c08dd00f5
:100aa000f00316000703de00868070000c00dd00f6
:100ab000074bde00060070008c4cdd000743de00b3
:100ac000868474000c44dd000c0252006120e100b9
:100ad0002000350061016000070028008781640064
:100ae000f7ff270087836400070374000300e0001a
:100af0000600320082037300040032000000e800a8
:100b0000e08048000188a3000e003a00f70f2000a3
:100b10000720e1004a003d000170a1004722dd00ee
:100b2000810072008a8070000000be004f06be0087
:100b30004f05be004f04be00000006006000b80074
:100b4000faff37008100d1000080d3000402e800e2
:100b5000eeff37000401780089017400a10107004d
:100b60008a807000f1ff3700f70107000702780064
:100b70000001fd008101fd00f301070087027800fc
:100b8000850372000778a300040032000001fd0015
:100b90008101fd0006020700e4ff370085036200c3
:100ba0000768a300080032000b50e1000300320088
:100bb000f0ff2f00f1ff2700dcff37000001fd00f0
:100bc0008101fd00d9ff37000468a300d7ff320080
:100bd000faff3700f8ff2700888360000b003a0017
:100be0000000e00009003a00830364008283730080
:100bf000020032000200be00ccff37000b50e100c3
:100c0000ceff3a000200be00c8ff370014002000eb
:100c1000810064003eff3700f8ff270088836100f1
:100c200004003a000200e00002003a008c00780064
:100c3000beff3700150020008301640039ff370034
:100c400001f827000000200081007500b7ff370081
:100c5000889fbe008a9fbe008c9fbe001b002000a4
:100c60000202be000586680006002800060666002f
:100c70004709de00f20fb200820032000243e800b2
:100c800080003200c729de00f30fb2007d00320081
:100c90000343e8007b003200f107b2000170a000be
:100ca000f507b2000570a000c708dd004903de00ab
:100cb000868070004700dd00c72add004923de0082
:100cc000868272004722dd000305510004035000b4
:100cd00085835800030031000000400081804800f7
:100ce0000a05e9008c1f78008a9fbe0004005000ae
:100cf000858058000402420085824a0000004000be
:100d0000818048000005eb000004be006033b8009d
:100d10000406be000d48e100560031001100090034
:100d20004dccd8000c01b8000d02b8008481410000
:100d300060824a008283530003045c0084845c0068
:100d400060055d000a00e00025003a00800578009b
:100d50000d40e1004900310088007800070078006c
:100d6000110009004d88d8000c01b8000d02b80030
:100d70008481410060824a006003110083835b002c
:100d800004045c00e0845c000900e00021003a00fb
:100d90004f01be000300e0002b003200e3016000c1
:100da000070673008c81710001003200640070003e
:100db0004200de004e5edd000c007000c258de0016
:100dc00001e0a00083010700cf017800818071005d
:100dd0004f06be004f05be004f04be0000000600d7
:100de0008c8343000d044c00e0844c0060054d00f2
:100df0000000e9000a00e000d4ff32008c834300c9
:100e00000d044c00e0844c0060054d000000e9003a
:100e1000ceff37000c0343008d834b0060044c0071
:100e2000e0844c000000e9000900e000d8ff320037
:100e30000c0343008d834b0060044c00e0844c00a5
:100e40000000e900d2ff37004200de004e5edd0008
:100e50000c007000c258de0001e0a000cf01780055
:100e60000300e000daff320060001000e0801800ac
:100e7000d7ff3700f0ff2f00aaff3700f0ff2f0049
:100e8000b9ff37000404be002f0107008706780071
:100e90000004fd008104fd002b01070007836600ac
:100ea0000678a300030032000960a7000800be0016
:100eb0002c0037000d78a300020032000800be00ad
:100ec000280037000778a30026003a0001f0a100af
:100ed00009f0a1000668a30003003200f1ff27001b
:100ee000f0ff2f00baff37000d68a30003003200a7
:100ef0000800be008c807000b5ff37000768a300b3
:100f000007003a000648a30003003200f1ff270063
:100f1000f0ff2f00aeff37000d48a30003003200a2
:100f20006000b8008c807000a9ff37000748a3005c
:100f30000400320001f82700000020008c807000bf
:100f4000a3ff3700760107000004fd008104fd00c7
:100f500002057800720107000802be008a017800cd
:100f600059ff37000160a0001202200022418800d2
:100f700097ff37000100e000120032000500e0009a
:100f800010003200889fbe008a9fbe008c9fbe006a
:100f90000006eb0001f8a30003003200600010001f
:100fa000e08018000cf0a00005f8a3000300320058
:100fb00060021200e0821a000cf0a2008005eb0033
:100fc00041ff37006000b80002000500038368009d
:100fd0000700280007036300470ade000480a10021
:100fe000c71ade000580a100f70f20000720e100ee
:100ff000420032000728e10040003200889fbe0016
:101000008a9fbe008c1f7800f107b200f307b20080
:101010000400e000640032000170a0000500e00060
:10102000680032000370a00085054200eb07b100a4
:101030000204b8000302b8008484440060854a00ba
:10104000020ab800848444000a854a00030ab800f2
:1010500004054500040033000804d0008984d20050
:101060000a85d2008b05e9006158e1003d0035009a
:10107000021020000901610003082000898161003d
:10108000f70720008783640008867300c84cde00e1
:10109000c853dd00878474004855de000300e0007b
:1010a0000600320082037600040032008904e80062
:1010b00060054d000a88a3000c003a00f70f2000dd
:1010c0000758e10044003d000a70a100c75ddd0043
:1010d0000a8575008a007300090078004f067800c1
:1010e0004f05be004f04be00000006000a05d100f7
:1010f0008984d3008b05e800f0ff3700881f780053
:101100000604780090000700070278000001fd0047
:101110008101fd008c0007008702780085037200c2
:101120000778a300050032000001fd008101fd00e9
:101130009f0007004f04780000000600850372003e
:101140000748a30003003200f0ff2f00f1ff270043
:10115000f8ff37000000200001f8270088807000a9
:10116000f4ff3700880178004848dd008081710075
:101170004848de00c850dd0001007000c850de00a5
:10118000060478000b0178001600070088807000c4
:10119000d2ff37000500e0000500320017002000f4
:1011a0003a0007009dff370081037000f9ff3a0005
:1011b000860078004f0678004f05be004f04be0041
:1011c0000000050083037100f9ff320027002000b2
:1011d0002e00070094ff370001f82700868070007a
:1011e000f4ff37000100e000260032006101110029
:1011f0007810e10023003c006022b8007010e1008c
:101200000400350080027800010078008000eb00c7
:10121000700151000200e000090034007003110069
:10122000062add00822ade008603dd008782720046
:101230000200de00860bdd00070070008208de0081
:1012400084817100f4ff27000482620084817100b0
:1012500004002800848262006102600005f0a6009c
:101260000000060004827100070032000000e80060
:10127000e0804800000006000002be006000b800e8
:10128000efff37006000b80000000600889fbe0036
:101290000004eb006138e10016003a000100e000b4
:1012a00008003a00c800de004800dd008800200089
:1012b0000100e00003003a00c800de004800dd0045
:1012c000680444008184cf00e9845400060034009f
:1012d0008908dd00f08314008703de00878070003a
:1012e0000900dd0009044400610214004f04be003f
:1012f000000006000300e00008003a00c811de000c
:101300004811dd00880020000300e00003003a00df
:10131000c811de004811dd00680444008384cf005a
:10132000e9845400060034008919dd00f0831400bc
:101330008713de00878171000911dd000904440074
:10134000e1021400e9ff37002700200001f0a700a8
:1013500017002000470bde00f60fb2000400320039
:101360000643e8000a0032004702b300000006000e
:1013700001037800f607b2000603700002003a008d
:101380000703b300000006008702b3000000060058
:1013900001037800f607b200060370000200320075
:1013a0000770a000000006000760a0000000060013
:1013b0000478a300040032000578a3000300320083
:1013c0000168a30001003a000200be000160a00015
:1013d0000000060081017000270032008002eb004f
:1013e00001f8a3000300320060001000e080180044
:1013f00015002000f4072000020242002000340003
:10140000f703200087036000060420000003630048
:1014100002082000000161004700de00c909dd006c
:1014200000807100c708de000600e00008003200fe
:1014300087037100060032001000b0000180b00088
:101440000188a30002003200c108de000402e800a7
:10145000f107b200f30f20000320e10003003d007c
:101460004722dd00810072002900370001f82700c3
:101470000000eb00260037006000b8000000060006
:10148000680212007f20e100020034006000b80012
:101490001f0037006011b8007020e1000400350023
:1014a00080017800010078008000eb00700252009b
:1014b0000400e00009003400f00312000719dd0009
:1014c0008419de000703dd00868171000400de0060
:1014d000070bdd00060070008408de00f7ff270020
:1014e0008383630087037100060028000303630001
:1014f000070032000700e00003003a0061016000cd
:1015000002817300020032001000b0000180b000c0
:101510000500a6000000060001f0a0000000060083
:101520004f0ade004709de00f107b200f20fb200f9
:101530000b003200f207b1000170a000c708dd0007
:10154000c901de00838070004700dd000400a600b2
:101550000000060060001000e08018000000060097
:10156000810f700001003a00000006008182cf0068
:101570000500e00010003e008082cf00ee824200b5
:101580007028e1000400390007003e008000780068
:101590000000eb000e003700708312008600de00b2
:1015a0000500dd000a003700708352008600dd0070
:1015b0000000eb0006003700e28252008508dd00e3
:1015c000708312000603de00868070000500dd00d7
:1015d0007507b0000501ea000400a600000006003f
:1015e00060001000e080180000000600889fbe0028
:1015f0008a9fbe00841f78006c0007004f007800af
:1016000011003300f0ff2f00838f6c0006003b00b9
:10161000040565000a00a7000800370009f0a600cd
:101620001000200008003700820f5400838f5c00f8
:10163000030039001000200001003e0000002000df
:1016400009f0a7000000ea004f05be004f04be00ed
:101650000000e00000000600889fbe008a9fbe00d8
:1016600000827000040271000482710026003200c2
:101670000004be000200be006011b8006b0920002b
:10168000950220000182cf000a0039000541b10017
:101690000082cf00070039000541b1000982cf0068
:1016a000040039000541b1000882cf000100390073
:1016b0000541b10005425200120032000a003b0011
:1016c00082817100610164008100d1000080d3003b
:1016d0008984d3000884d3008b05e8000442e80025
:1016e000f7ff3a00070037000804440089844c00e3
:1016f00000004800818048008b05e9000442e900b1
:10170000f9ff3a00030007004f05be004f04be007a
:101710000000060081002000618055000b003d00a4
:101720000b00200061fe2f000100e1001d003400cd
:1017300082817100610164008904d1000884d300b2
:101740000000e800faff3a00710020006100640028
:1017500003007000020060000900320061044400d0
:10176000e0844c000988a500050032008b05e800e4
:101770006808e10002003a008904d1000884d3001f
:10178000f20f20000258e10005003d00c75ddd00ba
:10179000f907b20089807500080078000000060093
:1017a0000bf827008b007800000005000004be0045
:1017b00024fc07000003be000405be000200be00ba
:1017c00020fc0700844f750000000600f2874700e8
:1017d000889fbe008a9fbe008c9fbe008e1f78002f
:1017e0000003be000400200005f82f0000024200a4
:1017f00081824a00f2ff2f00f3f72700820f520088
:10180000838f5a001b003600000140008181480090
:10181000e00f5100e08f590006003a000001be00c1
:10182000eafd07000001be000000200001f82b00c7
:1018300008003700e00f5000e08f580007003d001f
:1018400012022000d24288000001be0012fc0700f4
:101850006011b800fefc070079003700020020008c
:1018600003c02400d9fd07000003be007efe2f0048
:101870000a003700820f5000838f580070003e002e
:101880006000b8000200200003f82300820f53001c
:10189000838f5b006a0032000007eb00d0b02f009e
:1018a000a10420000603400087834800fe07b10022
:1018b00087007800f107b20006007800324f200060
:1018c00053f3230000004100818049000200200002
:1018d00003f82300d6b79f00e7b79f00eefb070091
:1018e0000004be000200200003002400f3fb0700f8
:1018f0000001be000800be00d5fc07000002be00cb
:101900000001be00f4b79f0085bf9f00affd070038
:101910000006be000001be00acfd07000005be00d1
:101920000200200003f023000800be00a7fd07000e
:101930000801be00a5fd0700b0b79f00c1b79f001a
:101940005fb39700efb39700473bde000600470008
:10195000cf80de004700070090b79f00a1b79f002f
:10196000e29e2e0013e923000a00be0097fd070047
:10197000a2aa2a00a3f22300d0fb07000001be00a8
:101980000c00be0091fd07000006be0062e22900c7
:1019900083e723000a00be008cfd070032e12c0023
:1019a000c3ec2300c5fb07000001be000a00be0017
:1019b00086fd07000001be000c00be00bffb070053
:1019c0000001be003fb09700cfb09700bbfb0700ff
:1019d0000001be007fb297008fba97000400be00de
:1019e0007afd07000005be00127d2f0073712300f1
:1019f0001fb09700afb0970074fd07000001be0054
:101a00000a00be00adfb07003fb19700cfb19700c1
:101a1000a1fb07000801be00a8fb07000004be00f0
:101a20000218270013f323001fb09700afb09700f0
:101a300066fd07000001be000800be009ffb070016
:101a40004f0778004f06be004f05be004f04be0092
:101a50002f01b1000000060080017800020037006d
:101a6000b15978000201e9000200e000fcff3a00f1
:101a7000000006004f89de00820178000000370078
:101a8000881f7800030478000300e00007003d0091
:101a900060001000e080180060011900e08119006a
:101aa00002003b0001f02d0003003700eafe0700b2
:101ab00008f0a70001f0a0004f0478000000060025
:020000040000fa
:101ac0004400fa00be0607009680a8009400a80013
:101ad0006c0307004b020700c442a800c462a900bf
:101ae000cd02a900cd22a900cd42a900c482a9003f
:101af000c442a900d4040700500407000004e00019
:101b00000200320020002000830107003503070097
:101b10000080fb00700060000000e0000200320066
:101b2000300020007c01070003c8bf000004e00073
:101b3000320032000368ef00420020008180200064
:101b40000e007800c4ff0700640047004200200038
:101b5000c1802000c0ff070068004700420020004d
:101b600001812000bcff07006c00470042002000fc
:101b700041812000b8ff07007000470042002000ac
:101b800081812000b4ff0700be02070041c1b300fd
:101b90000e00780073020700d602070074004700a9
:101ba0002200200061842000abff07007400470082
:101bb0006c00400022002000c1842000a6ff070026
:101bc000740047007800400022002000218520009a
:101bd000a1ff0700740047004002b000220020006f
:101be000618020009cff0700a602070074004700e8
:101bf00081c1b3005b020700be02070004c8bf003a
:101c00000004e000100032000468ef0005c8bf00c7
:101c1000e14f500004003a0010c0b30003e8b700e1
:101c2000c442a8000800370005c8bf00e24f5000ba
:101c300005003a000021ef0090d023001008880032
:101c4000000328002008880003c8bf000004a20089
:101c50000004e0000500320004c8bf000004a20038
:101c60000004e000010032002400070002c8bf00a9
:101c70000004e000010032000268ef0001c8bf006c
:101c80000004e000010032000168ef0000c8bf005e
:101c90000004e000020032000068ef006a04070060
:101ca0001600070092ff37000200fa00000f7800cc
:101cb0001e007800004078006f4060000080fb004c
:101cc0006f0060004219800001ff2f008100610059
:101cd00001007000401988002023a80000000000c7
:101ce00000198000610060000000e000fcff32008d
:101cf000001880000080fa00000006000000fa00d2
:101d0000c203070000d420003100200012060700a3
:101d10007c02070000d42000310020000e060700de
:101d20000040fe000080fa00000006000000fa00fb
:101d3000bc03070000d42000310020000606070085
:101d40007a02070000d420003100200002060700bc
:101d50000080fa00000006000200fa00000f780080
:101d6000f2ff07001e007800e20f50000900320069
:101d7000e30f50000a003200e10f50000c003a005f
:101d800010c0b30000e8b70010c0b30004e8b7000b
:101d90000800370010c0b30002e8b70005003700a4
:101da00010c0b30001e8b7000000000001003700d8
:101db000000000000080fa00000006000e00fa009b
:101dc000889fbe00600798006e0090008000eb00c6
:101dd0009afa070002002c00f34724009cfb07003e
:101de000323323003305240078fc0700008fbe0047
:101df00002002400c36124001e00be0073fc070023
:101e00000004be001e01be00303323003105240053
:101e1000a1fa07000001be000800be008cfb07000d
:101e2000200798003107980002002400c3612400b5
:101e30002e009000be00900085fb070063fe0700a7
:101e4000c2b22b004398230060fc0700f2f02c0084
:101e5000b3b5230099fa07000001be00000020007e
:101e600001f823007afb070040079800510798000b
:101e700032332900833824004e009000de009000a9
:101e800085fa07004f04be000080fa00000006003b
:101e90000400fa00881f7800008fbe0018c0b3004d
:101ea00062662600630824001e00be0040fa070098
:101eb0000000e00001003d000044eb000804e000e9
:101ec00002003200400620009000370018c0b30026
:101ed00002002000030824001e00be0034fa0700a0
:101ee0000000e00001003d000044eb000804e000b9
:101ef0000e00320002002000030824001e00be0075
:101f000065fa070002cc2c00c3e4230050fb070055
:101f100002002000031a24002cfc070026fa070008
:101f2000000078000005b0007800370018c0b3004a
:101f300062662600630724001e00be001cfa07002c
:101f40000000e00001003d000044eb000804e00058
:101f50000e00320062662600630724001e00be00e9
:101f60004dfa0700029a290093e1230038fb07008d
:101f700002002000031a240014fc07000efa0700d8
:101f800000007800c003b0006000370018c0b30044
:101f900002002000030724001e00be0004fa070010
:101fa0000000e00001003d000044eb000804e000f8
:101fb0000e00320002002000030724001e00be00b5
:101fc00035fa070002cc2c00c3dc230020fb0700fd
:101fd00002002000031a2400fcfb0700f6f90700aa
:101fe000000078008002b0004800370018c0b3003d
:101ff00062662600630624001e00be00ecf907009e
:102000000000e00001003d000044eb000804e00097
:102010000e00320062662600630624001e00be0029
:102020001dfa0700029a290093e1230008fb07002c
:1020300002002000031a2400e4fb0700def9070079
:1020400000007800740040003000370018c0b30072
:1020500002002000030624001e00be00d4f9070081
:102060000000e00001003d000044eb000804e00037
:102070000e00320002002000030624001e00be00f5
:1020800005fa070002cc2c00c3dc2300f0fa07009d
:102090000200200003122400ccfb0700c6f9070051
:1020a000000078006a0040001800370018c0b30034
:1020b000d2cc2c00c30424001e00be00bcf90700d3
:1020c0000000e00001003d000044eb000804e000d7
:1020d0000d003200d2cc2c00c30424001e00be0030
:1020e000edf907008299290093e92300d8fa070047
:1020f0000200200003122400b4fb0700aef9070021
:1021000000007800010037000000eb004f04780069
:102110000080fa00000006000400fa001007980092
:102120000000eb00000f78001e009000e20f50004e
:102130002a003200e20f500003003c00e10f500083
:1021400006003200aa003700e30f500046003200bc
:10215000e40f500064003200a50037002016800014
:102160004200de00614060000004a20061406000a7
:102170000080fb00610060004200dd00211680004d
:102180000120a100010070002016880000902000ae
:10219000d1032000f0040700201680004200de007a
:1021a000614060000004a200614060000080fb000c
:1021b000610060004200dd00211680000120a100c6
:1021c000010070002016880000902000d10320003c
:1021d000e10407001e0fe800e0ff37000e80e80072
:1021e00011c0b30002010700201680004200de008b
:1021f000614060000004a200614060000080fb00bc
:10220000610060004200dd00211680000120a10075
:10221000010070002016880000202100a107200086
:10222000cd040700201680004200de0061406000ff
:102230000004a200614060000080fb0061006000bb
:102240004200dd00211680000120a1000100700085
:102250002016880000202100a1072000be040700ee
:102260001e0fe800e0ff3700201680004200de006d
:10227000614060000004a200614060000080fb003b
:10228000610060004200dd00211680000120a100f5
:10229000010070002016880000b02100710b2000a2
:1022a000ad040700201680004200de00614060009f
:1022b0000004a200614060000080fb00610060003b
:1022c0004200dd00211680000120a1000100700005
:1022d0002016880000b02100710b20009e0407002a
:1022e0001e0fe800e0ff37001e00900011c0b30091
:1022f000bf000700201680004200de006140600041
:102300000004a200614060000080fb0061006000ea
:102310004200dd00211680000120a10001007000b4
:102320002016880000202100a10720008a04070051
:10233000201680004200de00614060000004a20020
:10234000614060000080fb00610060004200dd0031
:10235000211680000120a1000100700020168800d5
:1023600000202100a10720007b0407001e0fe800c9
:10237000e0ff3700201680004200de006140600070
:102380000004a200614060000080fb00610060006a
:102390004200dd00211680000120a1000100700034
:1023a0002016880000482800e10120006a04070088
:1023b000201680004200de00614060000004a200a0
:1023c000614060000080fb00610060004200dd00b1
:1023d000211680000120a100010070002016880055
:1023e00000482800e10120005b0407001e0fe80000
:1023f0001e007800e40f5000deff34000080fa0079
:10240000000006000000fa0081c0b3000040eb00ad
:10241000230007008040eb0010c0b300200007003d
:1024200011c0b30020c0b3001d00070031c0b300cd
:1024300030c0b3001a0007008040eb0040c0b3007a
:102440001700070021c0b30050c0b30014000700fc
:1024500071c0b30060c0b3001100070001c7b30032
:1024600070c0b3000e00070001c2b30010c1b3007a
:102470000b0007008040eb00d0c1b300080007004c
:102480008040eb00c0c1b30005000700a1c0b3004d
:102490000040eb00020007000080fa000000060088
:1024a0000200fa00004f780011479800cd62a900a1
:1024b0001e80fb007f0060000050a00040128800da
:1024c0000000000000128000610060000000e000d9
:1024d000fcff32001e4090000080fb00401288008c
:1024e0000000000000128000610060000000e000b9
:1024f000fcff3200cd62a8000080fa000000060058
:102500000400fa0020479800cd62a9002e409000f8
:102510000080fb007f006000401288000000000087
:1025200000128000610060000000e000fcff32004b
:10253000f00f200040128800000000000012800010
:10254000610060000000e000fcff320040128000eb
:10255000004f7800cd62a8001e4078000080fa008d
:10256000000006000600fa00100798004147980096
:1025700044000700cd62a900000a20004012880034
:102580000000000000128000610060000000e00018
:10259000fcff32000040eb00004f78000c003700d9
:1025a0001e80fb009e0090000080400010407800dc
:1025b0000080fb0040128800000000000012800034
:1025c000610060000000e000fcff32001e4fe800e8
:1025d0004e4090009e40780080cf5000f0ff3900c0
:1025e000cd62a800430007000080fa00000006004a
:1025f0000600fa0010079800414798002f000700d6
:10260000cd62a900100620004012880000000000e2
:1026100000128000610060000000e000fcff32005a
:102620000040eb00004f78000e003700f00f200054
:10263000401288000000000000128000610060006d
:102640000000e000fcff32001e80fb009e009000b6
:1026500000804000411280008140780001487800ed
:102660001e4fe8004e4090009e40780080cf500002
:10267000eeff3900cd62a8001e0007000080fa00be
:10268000000006000200fa000040eb009cff07007b
:10269000004f78001e04a1009e4078000040eb002f
:1026a0007fff0700cd82a800c003200001002000aa
:1026b000a90307000080fa00000006000200fa00eb
:1026c0000040eb008eff0700004f78001e04a000c2
:1026d0009e4078000040eb0071ff0700cd82a8000b
:1026e00080202000010020009b0307000080fa00ea
:1026f000000006000000fa00cd82a9000080fa0068
:10270000000006000200fa000040eb007cff07001a
:10271000004f78001e14a1009e4078000040eb009e
:102720005fff07000080fa00000006000200fa00c8
:102730000040eb0072ff0700004f78001e14a0005d
:102740009e4078000040eb0055ff07000077210015
:1027500001002000800307000080fa00000006004e
:102760000600fa001007980041479800cd62a900c2
:1027700000032000401288000000000000128000ca
:10278000610060000000e000fcff32000040eb0050
:10279000004f78000c0037001e80fb009e00900068
:1027a00000804000104078000080fb00401288004c
:1027b0000000000000128000610060000000e000e6
:1027c000fcff32001e4fe8004e4090009e40780013
:1027d00080cf5000f0ff3900cd62a8000080fa00e1
:1027e000000006000000fa0070c0b30044ff0700bc
:1027f0000080fa00000006000000fa00cd62a90087
:10280000100e20004012880000000000001280001e
:10281000610060000000e000fcff3200cd62a80013
:102820000080fa00000006000000fa00cd62a90056
:10283000200e2000401288000000000000128000de
:10284000610060000000e000fcff3200cd62a800e3
:102850000080fa00000006000200fa0070c0b30019
:1028600027ff0700004f780000c7b3001e4070002c
:102870008040780070c0b30009ff07000080fa00b4
:10288000000006000000fa00c802a900c822a80043
:10289000c842a900c882a90042a2a80042c2a90059
:1028a0004302a8004322a9004342a900101280005d
:1028b0003000b300101288001112800030fe2f008b
:1028c000008060008001b3001012880041e2a8007f
:1028d000c862a8008220a9008680a9009680a8006e
:1028e0008040eb00b0c6b3002c0007008040eb0036
:1028f000c0c6b3002900070021c0b30070c3b300f5
:102900002600070011c0b30080c3b30023000700f6
:102910008040eb00c0c1b300200007008040eb0006
:10292000b0c1b3001d00070001c2b300a0c6b300d0
:102930001a000700d1c0b30040c2b300170007005f
:10294000c1c8b30050c2b30014000700a1c0b30057
:1029500060c2b3001100070011c8b30070c2b30019
:102960000e000700c1c0b30050c2b3000b00070047
:10297000a1c0b30060c2b3000800070011c8b300d3
:1029800070c2b3000500070061c1b30060c2b300ac
:10299000020007000080fa00000006000200fa00b2
:1029a000004f780011479800cc82a9009e80fb0060
:1029b000f007200000806000401288000000000046
:1029c00000128000610060000000e000fcff3200a7
:1029d0001e4090000080fb004012880000000000b4
:1029e00000128000610060000000e000fcff320087
:1029f000cc82a8000080fa00000006000400fa0063
:102a000020479800cc82a9002e4090000074a000be
:102a10000080fb00401288000000000000128000cf
:102a2000610060000000e000fcff32004012800006
:102a3000004f7800cc82a8001e4078000080fa0089
:102a4000000006002000fa00400f9800510f980087
:102a5000620f9800730f9800cc82a900b00b200081
:102a6000401288000000eb00000f78000b003700d8
:102a70000000000000128000610060000000e00023
:102a8000fcff320040128000804078000e80e80099
:102a90001e004000014878001e0fe8001e0078006c
:102aa000f40f5000f2ff3400cc82a8002e409000ba
:102ab0000080fb00c800dd003e4090000080fb006d
:102ac000810070004e089000010878004e089000c8
:102ad0000080e800ce4090008180fb004809dd00c6
:102ae000de4090008180fb00828070000108780049
:102af0004e08900064004000ee4090008180fb0092
:102b00004809dd00fe4090008180fb00828070005b
:102b1000010878000e4890000080fb00c800dd002e
:102b20001e4890000080fb00810070007e0890002d
:102b3000010878002e4890000080fb00c800dd00ee
:102b40003e4890000080fb00810070005e0890000d
:102b5000010878005e0890000080e800ce489000f0
:102b60008180fb004809dd00de4890008180fb0089
:102b700082807000010878005e08900064004000c8
:102b8000ee4890008180fb004809dd00fe4890007f
:102b90008180fb0082807000010878001e50900048
:102ba0000080fb00c800dd000e5090000080fb009c
:102bb000810070006e089000010878006e08900097
:102bc0000080e800be5090008180fb004809dd00d5
:102bd000ae5090008180fb00828070000108780078
:102be0006e08900064004000de5090008180fb0081
:102bf0004809dd00ce5090008180fb00828070008b
:102c0000010878000080fa00000006000000fa00c9
:102c100001c4b300b0c6b30060ff07000080fa0033
:102c2000000006000000fa008040eb00b0c6b300d0
:102c30005aff07000080fa00000006000200fa00b8
:102c4000a0c3b3006dff0700004f78009e407800de
:102c500061c060000080fa00000006000000fa0079
:102c60000021ef0080d02300100888000002280017
:102c700020088800e04080000000e00002003a00e8
:102c800060682100680007008460a9009460a800c3
:102c9000808520008040eb00014878000080fa0029
:102ca000000006000200fa00000f78009e00780085
:102cb00011088800808520008040eb0001487800e2
:102cc0000080fa00000006000000fa0010088000f2
:102cd0000080fa00000006000200fa00000f7800f1
:102ce0009e00780001088800808520008040eb006d
:102cf000014878000080fa00000006000000fa0099
:102d0000000880000080fa00000006000000fa00c1
:102d100055000700100020000ffc070010c0b30092
:102d200000e8b70010c0b30003e8b700c482a800f1
:102d300000d4200031002000070207000000eb0053
:102d4000d9fb07001dfc0700404088005140880067
:102d500010002000d4fb07008000eb00b7f607004e
:102d600002002c00f3472400b9f707003233230098
:102d70003305240095f80700604088007140880002
:102d800020002000c8fb07008000eb00abf6070026
:102d900002002c00f3472400adf707003233230074
:102da0003305240089f8070080408800914088009e
:102db00030002000bcfb07008000eb009ff60700fe
:102dc00002002c00f3472400a1f707003233230050
:102dd000330524007df80700a0408800b14088003a
:102de00040002000b0fb07008000eb0093f60700d6
:102df00002002c00f347240095f70700323323002c
:102e00003305240071f80700c0408800d1408800d5
:102e100000d4200031002000cf010700c482a900a7
:102e20000080fa00000006000200fa00000f78009f
:102e30009460a9009e007800e14088009460a8009a
:102e40000080fa00000006000000fa0080852000e3
:102e50008040eb00014878009460a80005e1a800dc
:102e60000080fa00000006000000fa0005e1a90059
:102e70009460a9000080fa00000006000200fa0039
:102e800080852000104f78001e4078000004e0008c
:102e900003003200808520008040eb00014878006c
:102ea0001e4078000080fa00000006000000fa00d2
:102eb00090852000104078000080fb000080fa0020
:102ec000000006000000fa00908520008040eb0022
:102ed000014878000080fa00000006000000fa00b7
:102ee00000422000101288001000200020128800ec
:102ef000c0002800001288000080fa0000000600d0
:102f00000400fa00000f780011079800000000008c
:102f100000128000620060000000e000fcff3a0048
:102f20001e007800100078004012880000000000a9
:102f30000112800000022000008060000000e0001c
:102f4000fbff3a001e00900041128000010878004b
:102f50000080fa00000006001800fa00100f980028
:102f6000210f9800320f98000000eb00000f78004e
:102f70000000eb00100798000000eb0070079800bd
:102f80000000eb00000f9800200020006007980070
:102f90002e0890000000d100200f98001e0890001d
:102fa0000000e00005003a000000eb005007980028
:102fb000700047002007980004003700ee009000e2
:102fc000510798009e089000210798003e08900045
:102fd0000000e00005003a000000eb004007980008
:102fe0006e0047003007980005003700ee009000a3
:102ff00041079800be0890003107980000000000cb
:1030000000128000620060000000e000fcff3a0057
:103010001b00370000128000620060000000e0002a
:1030200008003a002e00900010007800401288003e
:10303000ae0090005e0090000080400020079800e5
:103040001e0fe800011280000002200000806000d6
:103050000000e0000a003a003e00900041128000ab
:1030600001087800be0090004e00900000804000f3
:10307000300798001e0090000000e800100798003c
:103080002e0890009e007800808f5000e1ff3900ec
:103090000f00370001128000000220000080600055
:1030a0000000e0000a003a003e009000411280005b
:1030b00001087800be0090004e00900000804000a3
:1030c000300798001e0090000000e80010079800ec
:1030d0009e0090002e089000808f5000edff390078
:1030e0001e0078000080fa00000006000400fa00cc
:1030f000100798008e0078000e80e80080ff07001f
:103100001e0078000080fa00000006000600fa00a9
:10311000000f78001107980022079800ae00900079
:103120001e007800010178009e0090008aff0700d1
:103130000080fa00000006000000fa000012800083
:103140000080fa00000006000000fa00400028009d
:10315000001988002223ef002423ef002823ef002a
:103160003023ef00a08b2100050007000080fa004b
:10317000000006000000fa000080fa0000000600cf
:103180000200fa00000f78001e007800104188004d
:103190000080fa00000006000000fa002104800010
:1031a00000002200008060000000e0000600320005
:1031b000104180000000e000020032001041800059
:1031c0000000010085a0a9000080fa0000000600b0
:1031d0000000fa002023a8000080fa00000006008a
:1031e0000000fa002023a9000080fa000000060079
:1031f0000800fa0030079800101980004200de0035
:103200006f4060000080fb00200798000030200025
:10321000100798000000eb00000f78000b0037004b
:103220001e00780000004000be00900000804000ba
:103230009e00900091007800010878001e00900028
:103240000080e800100798001e0fe8009e0078003c
:103250002e009000808f5000f1ff36001e00780095
:103260000080fa00000006000000fa004000200084
:1032700020168800cc22ef003000200000168800c5
:10328000c00e2e00401688006820ef006a20ef0074
:10329000c622ef00ce22ef00c00321006019880093
:1032a000113a8000f00b20000081600060042000d3
:1032b000710520002374200080497800814978003e
:1032c000824978002136800000fe2f0000806000d7
:1032d0009000b3002036880051368000f00f2e0099
:1032e000808060000090200001007000503688004f
:1032f00001368000f00f2e008080600000702000fa
:10330000010070000036880001348000f00f2e00ac
:1033100080806000003020000100700000348800d0
:103320000136800000fe2f00008060000030a00009
:10333000003688004135800000fe2f0000806000cc
:103340000010a00040358800103a8000000178008d
:103350000260a0006004200071052000237420009a
:103360008049780081497800824978000080fa001d
:10337000000006000200fa0010c0b30002e8b70027
:103380002000200074fa070016fd0700004f7800a7
:103390009e80fb0000022000008060000000e00032
:1033a0000500320010c0b30004e8b70011c0b3003c
:1033b000508020008efc07001e80fb007000600023
:1033c0000000e000020032003000200052fb070045
:1033d00021fd07000080fa00000006000000fa004e
:1033e00010c0b30001e8b700300020005afa07000f
:1033f0006380200022852000c1842000608420009a
:1034000090fd07000080fa00000006000000fa00ae
:103410008400a9008200a9009400a8008680a90069
:103420008220a9009680a8000080fa000000060013
:020000040000fa
:103430002608000020000000000000002008000016
:103440000200000002000000ffff00002208000050
:103450000200000000000000580800000200000008
:10346000000000001c080000040000000000000034
:1034700046080000120000000000000000080000e4
:103480001c000000000000002408000002000000f2
:10349000000000005a0800000200000000000000c8
:0434a0000000000028
:020000040000fa
:1034a4000000fa0000902c00203a88004827ef0022
:1034b400000f2f00803b8800f0f12100903b880032
:1034c40020782000a03b88000001eb00800720004a
:1034d400a1092000337420008049780081497800d4
:1034e400824978000001eb0060042000710520008f
:1034f400237420008049780081497800824978004b
:103504000080fa00000006000000fa002105800097
:1035140080ff2f00008060000000a00020058800cc
:103524007105800080ff2f00008060000010a00063
:103534007005880021058000f0ff2800808060006d
:103544000000230001007000200588000080fa00bc
:04355400000006006d
:020000040000fa
:10355800f03fb1000180b10006003500ee0309001c
:1035680000000000403fb1000180b100fbff3d00ba
:103578001000b000203fb0000200350000800900b4
:08358800000000000000060035
:020000040000fa
:103590000200fa00000f78009e00780001418800c8
:1035a000ffff37000000fa006082200080077800eb
:1035b000e0832000000188000080fa00000006007f
:1035c0000000fa0028ff0700d0ff0700b5ff070042
:1035d00042fe0700dcfe0700a0fd07008bff07008e
:0835e0000080fa000000060063
:020000040000fa
:020000040001f9
:0457f8009f78000096
:020000040000fa
:020000040001f9
:0457fc006f3d0000fd
:00000001FF
